{
  "contractName": "FlightSuretyApp",
  "abi": [
    {
      "constant": true,
      "inputs": [],
      "name": "REGISTRATION_FEE",
      "outputs": [
        {
          "name": "",
          "type": "uint256"
        }
      ],
      "payable": false,
      "stateMutability": "view",
      "type": "function"
    },
    {
      "inputs": [
        {
          "name": "dataContractAddress",
          "type": "address"
        }
      ],
      "payable": false,
      "stateMutability": "nonpayable",
      "type": "constructor"
    },
    {
      "anonymous": false,
      "inputs": [
        {
          "indexed": false,
          "name": "name",
          "type": "string"
        },
        {
          "indexed": false,
          "name": "addr",
          "type": "address"
        },
        {
          "indexed": false,
          "name": "result",
          "type": "bool"
        },
        {
          "indexed": false,
          "name": "votes",
          "type": "uint256"
        }
      ],
      "name": "AirlineRegistered",
      "type": "event"
    },
    {
      "anonymous": false,
      "inputs": [
        {
          "indexed": false,
          "name": "airline",
          "type": "address"
        },
        {
          "indexed": false,
          "name": "amount",
          "type": "uint256"
        }
      ],
      "name": "AirlineFunded",
      "type": "event"
    },
    {
      "anonymous": false,
      "inputs": [
        {
          "indexed": false,
          "name": "airline",
          "type": "address"
        },
        {
          "indexed": false,
          "name": "flightName",
          "type": "string"
        },
        {
          "indexed": false,
          "name": "departureTime",
          "type": "uint256"
        }
      ],
      "name": "FlightRegistered",
      "type": "event"
    },
    {
      "anonymous": false,
      "inputs": [
        {
          "indexed": false,
          "name": "airline",
          "type": "address"
        },
        {
          "indexed": false,
          "name": "flight",
          "type": "string"
        },
        {
          "indexed": false,
          "name": "timestamp",
          "type": "uint256"
        },
        {
          "indexed": false,
          "name": "passenger",
          "type": "address"
        },
        {
          "indexed": false,
          "name": "amount",
          "type": "uint256"
        },
        {
          "indexed": false,
          "name": "multiplier",
          "type": "uint256"
        }
      ],
      "name": "InsuranceBought",
      "type": "event"
    },
    {
      "anonymous": false,
      "inputs": [
        {
          "indexed": false,
          "name": "airline",
          "type": "address"
        },
        {
          "indexed": false,
          "name": "flight",
          "type": "string"
        },
        {
          "indexed": false,
          "name": "timestamp",
          "type": "uint256"
        },
        {
          "indexed": false,
          "name": "status",
          "type": "uint8"
        }
      ],
      "name": "FlightStatusInfo",
      "type": "event"
    },
    {
      "anonymous": false,
      "inputs": [
        {
          "indexed": false,
          "name": "airline",
          "type": "address"
        },
        {
          "indexed": false,
          "name": "flight",
          "type": "string"
        },
        {
          "indexed": false,
          "name": "timestamp",
          "type": "uint256"
        },
        {
          "indexed": false,
          "name": "status",
          "type": "uint8"
        }
      ],
      "name": "OracleReport",
      "type": "event"
    },
    {
      "anonymous": false,
      "inputs": [
        {
          "indexed": false,
          "name": "index",
          "type": "uint8"
        },
        {
          "indexed": false,
          "name": "airline",
          "type": "address"
        },
        {
          "indexed": false,
          "name": "flight",
          "type": "string"
        },
        {
          "indexed": false,
          "name": "timestamp",
          "type": "uint256"
        }
      ],
      "name": "OracleRequest",
      "type": "event"
    },
    {
      "anonymous": false,
      "inputs": [
        {
          "indexed": false,
          "name": "getRegisteredAirlinesCount",
          "type": "uint256"
        }
      ],
      "name": "RegisteredCount",
      "type": "event"
    },
    {
      "constant": true,
      "inputs": [],
      "name": "isOperational",
      "outputs": [
        {
          "name": "",
          "type": "bool"
        }
      ],
      "payable": false,
      "stateMutability": "view",
      "type": "function"
    },
    {
      "constant": false,
      "inputs": [
        {
          "name": "mode",
          "type": "bool"
        }
      ],
      "name": "setOperatingStatus",
      "outputs": [],
      "payable": false,
      "stateMutability": "nonpayable",
      "type": "function"
    },
    {
      "constant": true,
      "inputs": [],
      "name": "getRegisteredAirlines",
      "outputs": [
        {
          "name": "",
          "type": "address[]"
        }
      ],
      "payable": false,
      "stateMutability": "view",
      "type": "function"
    },
    {
      "constant": true,
      "inputs": [
        {
          "name": "airlineAddress",
          "type": "address"
        }
      ],
      "name": "getRegisterAirlineMultiCalls",
      "outputs": [
        {
          "name": "",
          "type": "address[]"
        }
      ],
      "payable": false,
      "stateMutability": "view",
      "type": "function"
    },
    {
      "constant": false,
      "inputs": [
        {
          "name": "name",
          "type": "string"
        },
        {
          "name": "addr",
          "type": "address"
        }
      ],
      "name": "registerAirline",
      "outputs": [
        {
          "name": "success",
          "type": "bool"
        },
        {
          "name": "votes",
          "type": "uint256"
        }
      ],
      "payable": false,
      "stateMutability": "nonpayable",
      "type": "function"
    },
    {
      "constant": false,
      "inputs": [],
      "name": "fundAirline",
      "outputs": [],
      "payable": true,
      "stateMutability": "payable",
      "type": "function"
    },
    {
      "constant": false,
      "inputs": [
        {
          "name": "flightName",
          "type": "string"
        },
        {
          "name": "departureTime",
          "type": "uint256"
        }
      ],
      "name": "registerFlight",
      "outputs": [],
      "payable": false,
      "stateMutability": "nonpayable",
      "type": "function"
    },
    {
      "constant": false,
      "inputs": [
        {
          "name": "airline",
          "type": "address"
        },
        {
          "name": "flight",
          "type": "string"
        },
        {
          "name": "timestamp",
          "type": "uint256"
        }
      ],
      "name": "fetchFlightStatus",
      "outputs": [
        {
          "name": "",
          "type": "bytes32"
        },
        {
          "name": "",
          "type": "bool"
        }
      ],
      "payable": false,
      "stateMutability": "nonpayable",
      "type": "function"
    },
    {
      "constant": false,
      "inputs": [
        {
          "name": "airline",
          "type": "address"
        },
        {
          "name": "flight",
          "type": "string"
        },
        {
          "name": "timestamp",
          "type": "uint256"
        }
      ],
      "name": "buyInsurance",
      "outputs": [],
      "payable": true,
      "stateMutability": "payable",
      "type": "function"
    },
    {
      "constant": false,
      "inputs": [],
      "name": "pay",
      "outputs": [],
      "payable": false,
      "stateMutability": "nonpayable",
      "type": "function"
    },
    {
      "constant": false,
      "inputs": [],
      "name": "registerOracle",
      "outputs": [],
      "payable": true,
      "stateMutability": "payable",
      "type": "function"
    },
    {
      "constant": true,
      "inputs": [],
      "name": "getMyIndexes",
      "outputs": [
        {
          "name": "",
          "type": "uint8[3]"
        }
      ],
      "payable": false,
      "stateMutability": "view",
      "type": "function"
    },
    {
      "constant": false,
      "inputs": [
        {
          "name": "index",
          "type": "uint8"
        },
        {
          "name": "airline",
          "type": "address"
        },
        {
          "name": "flight",
          "type": "string"
        },
        {
          "name": "timestamp",
          "type": "uint256"
        },
        {
          "name": "statusCode",
          "type": "uint8"
        }
      ],
      "name": "submitOracleResponse",
      "outputs": [],
      "payable": false,
      "stateMutability": "nonpayable",
      "type": "function"
    }
  ],
  "bytecode": "0x60806040526001600060146101000a81548160ff0219169083151502179055506000600260146101000a81548160ff021916908360ff16021790555034801561004757600080fd5b506040516136803803806136808339818101604052602081101561006a57600080fd5b8101908080519060200190929190505050336000806101000a81548173ffffffffffffffffffffffffffffffffffffffff021916908373ffffffffffffffffffffffffffffffffffffffff16021790555080600260006101000a81548173ffffffffffffffffffffffffffffffffffffffff021916908373ffffffffffffffffffffffffffffffffffffffff160217905550506135748061010c6000396000f3fe6080604052600436106100fa576000357c01000000000000000000000000000000000000000000000000000000009004806364b4f7511161009c578063c10f270011610076578063c10f2700146104c5578063c23bcf091461058f578063cd905dff146105fb578063f83f11c01461062a576100fa565b806364b4f751146103ea5780639ed1892714610415578063a51f019d1461041f576100fa565b80632f6721d0116100d85780632f6721d01461025a578063339d2590146102fd57806339cfc995146103075780635f1cc0e614610397576100fa565b80630e2c4129146100ff578063110466ed146102065780631b9265b814610243575b600080fd5b34801561010b57600080fd5b506101e56004803603604081101561012257600080fd5b810190808035906020019064010000000081111561013f57600080fd5b82018360208201111561015157600080fd5b8035906020019184600183028401116401000000008311171561017357600080fd5b91908080601f016020809104026020016040519081016040528093929190818152602001838380828437600081840152601f19601f820116905080830192505050505050509192919290803573ffffffffffffffffffffffffffffffffffffffff1690602001909291905050506106f9565b60405180831515151581526020018281526020019250505060405180910390f35b34801561021257600080fd5b506102416004803603602081101561022957600080fd5b81019080803515159060200190929190505050610f8a565b005b34801561024f57600080fd5b506102586110d5565b005b6102fb6004803603606081101561027057600080fd5b81019080803573ffffffffffffffffffffffffffffffffffffffff169060200190929190803590602001906401000000008111156102ad57600080fd5b8201836020820111156102bf57600080fd5b803590602001918460018302840111640100000000831117156102e157600080fd5b909192939192939080359060200190929190505050611211565b005b610305611a91565b005b34801561031357600080fd5b506103956004803603604081101561032a57600080fd5b810190808035906020019064010000000081111561034757600080fd5b82018360208201111561035957600080fd5b8035906020019184600183028401116401000000008311171561037b57600080fd5b909192939192939080359060200190929190505050611c1c565b005b3480156103a357600080fd5b506103ac611f83565b6040518082600360200280838360005b838110156103d75780820151818401526020810190506103bc565b5050505090500191505060405180910390f35b3480156103f657600080fd5b506103ff61215b565b6040518082815260200191505060405180910390f35b61041d612167565b005b34801561042b57600080fd5b5061046e6004803603602081101561044257600080fd5b81019080803573ffffffffffffffffffffffffffffffffffffffff1690602001909291905050506123d8565b6040518080602001828103825283818151815260200191508051906020019060200280838360005b838110156104b1578082015181840152602081019050610496565b505050509050019250505060405180910390f35b3480156104d157600080fd5b5061058d600480360360a08110156104e857600080fd5b81019080803560ff169060200190929190803573ffffffffffffffffffffffffffffffffffffffff1690602001909291908035906020019064010000000081111561053257600080fd5b82018360208201111561054457600080fd5b8035906020019184600183028401116401000000008311171561056657600080fd5b909192939192939080359060200190929190803560ff1690602001909291905050506124a5565b005b34801561059b57600080fd5b506105a4612a56565b6040518080602001828103825283818151815260200191508051906020019060200280838360005b838110156105e75780820151818401526020810190506105cc565b505050509050019250505060405180910390f35b34801561060757600080fd5b50610610612b72565b604051808215151515815260200191505060405180910390f35b34801561063657600080fd5b506106d86004803603606081101561064d57600080fd5b81019080803573ffffffffffffffffffffffffffffffffffffffff1690602001909291908035906020019064010000000081111561068a57600080fd5b82018360208201111561069c57600080fd5b803590602001918460018302840111640100000000831117156106be57600080fd5b909192939192939080359060200190929190505050612b88565b60405180838152602001821515151581526020019250505060405180910390f35b600080600060149054906101000a900460ff16610761576040517f08c379a00000000000000000000000000000000000000000000000000000000081526004018080602001828103825260258152602001806134c66025913960400191505060405180910390fd5b60008090506000600260009054906101000a900473ffffffffffffffffffffffffffffffffffffffff1673ffffffffffffffffffffffffffffffffffffffff1663f77890ea6040518163ffffffff167c010000000000000000000000000000000000000000000000000000000002815260040160206040518083038186803b1580156107ec57600080fd5b505afa158015610800573d6000803e3d6000fd5b505050506040513d602081101561081657600080fd5b81019080805190602001909291905050509050600481101561099e57600260009054906101000a900473ffffffffffffffffffffffffffffffffffffffff1673ffffffffffffffffffffffffffffffffffffffff16630e2c412987876040518363ffffffff167c010000000000000000000000000000000000000000000000000000000002815260040180806020018373ffffffffffffffffffffffffffffffffffffffff1673ffffffffffffffffffffffffffffffffffffffff168152602001828103825284818151815260200191508051906020019080838360005b8381101561090f5780820151818401526020810190506108f4565b50505050905090810190601f16801561093c5780820380516001836020036101000a031916815260200191505b509350505050602060405180830381600087803b15801561095c57600080fd5b505af1158015610970573d6000803e3d6000fd5b505050506040513d602081101561098657600080fd5b81019080805190602001909291905050509150610e13565b600080905060008090505b600160008873ffffffffffffffffffffffffffffffffffffffff1673ffffffffffffffffffffffffffffffffffffffff16815260200190815260200160002080549050811015610ab1573373ffffffffffffffffffffffffffffffffffffffff16600160008973ffffffffffffffffffffffffffffffffffffffff1673ffffffffffffffffffffffffffffffffffffffff1681526020019081526020016000208281548110610a5457fe5b9060005260206000200160009054906101000a900473ffffffffffffffffffffffffffffffffffffffff1673ffffffffffffffffffffffffffffffffffffffff161415610aa45760019150610ab1565b80806001019150506109a9565b508015610b26576040517f08c379a000000000000000000000000000000000000000000000000000000000815260040180806020018281038252601e8152602001807f43616c6c65722068617320616c726561647920726567697374657265642e000081525060200191505060405180910390fd5b600160008773ffffffffffffffffffffffffffffffffffffffff1673ffffffffffffffffffffffffffffffffffffffff1681526020019081526020016000203390806001815401808255809150509060018203906000526020600020016000909192909190916101000a81548173ffffffffffffffffffffffffffffffffffffffff021916908373ffffffffffffffffffffffffffffffffffffffff16021790555050610bdd600283612dd390919063ffffffff16565b600160008873ffffffffffffffffffffffffffffffffffffffff1673ffffffffffffffffffffffffffffffffffffffff1681526020019081526020016000208054905010610e1157600260009054906101000a900473ffffffffffffffffffffffffffffffffffffffff1673ffffffffffffffffffffffffffffffffffffffff16630e2c412988886040518363ffffffff167c010000000000000000000000000000000000000000000000000000000002815260040180806020018373ffffffffffffffffffffffffffffffffffffffff1673ffffffffffffffffffffffffffffffffffffffff168152602001828103825284818151815260200191508051906020019080838360005b83811015610d02578082015181840152602081019050610ce7565b50505050905090810190601f168015610d2f5780820380516001836020036101000a031916815260200191505b509350505050602060405180830381600087803b158015610d4f57600080fd5b505af1158015610d63573d6000803e3d6000fd5b505050506040513d6020811015610d7957600080fd5b810190808051906020019092919050505092506000604051908082528060200260200182016040528015610dbc5781602001602082028038833980820191505090505b50600160008873ffffffffffffffffffffffffffffffffffffffff1673ffffffffffffffffffffffffffffffffffffffff1681526020019081526020016000209080519060200190610e0f929190613233565b505b505b7f5830152b09b4f01c34ead661365969a1f6683c57b8d4039a6ec2f3ca64c4274c868684600160008a73ffffffffffffffffffffffffffffffffffffffff1673ffffffffffffffffffffffffffffffffffffffff1681526020019081526020016000208054905060405180806020018573ffffffffffffffffffffffffffffffffffffffff1673ffffffffffffffffffffffffffffffffffffffff16815260200184151515158152602001838152602001828103825286818151815260200191508051906020019080838360005b83811015610efc578082015181840152602081019050610ee1565b50505050905090810190601f168015610f295780820380516001836020036101000a031916815260200191505b509550505050505060405180910390a181600160008773ffffffffffffffffffffffffffffffffffffffff1673ffffffffffffffffffffffffffffffffffffffff168152602001908152602001600020805490509350935050509250929050565b6000809054906101000a900473ffffffffffffffffffffffffffffffffffffffff1673ffffffffffffffffffffffffffffffffffffffff163373ffffffffffffffffffffffffffffffffffffffff161461104c576040517f08c379a000000000000000000000000000000000000000000000000000000000815260040180806020018281038252601c8152602001807f43616c6c6572206973206e6f7420636f6e7472616374206f776e65720000000081525060200191505060405180910390fd5b600060149054906101000a900460ff16151581151514156110b8576040517f08c379a000000000000000000000000000000000000000000000000000000000815260040180806020018281038252602d81526020018061341c602d913960400191505060405180910390fd5b80600060146101000a81548160ff02191690831515021790555050565b600060149054906101000a900460ff1661113a576040517f08c379a00000000000000000000000000000000000000000000000000000000081526004018080602001828103825260258152602001806134c66025913960400191505060405180910390fd5b600260009054906101000a900473ffffffffffffffffffffffffffffffffffffffff1673ffffffffffffffffffffffffffffffffffffffff16630c11dedd336040518263ffffffff167c0100000000000000000000000000000000000000000000000000000000028152600401808273ffffffffffffffffffffffffffffffffffffffff1673ffffffffffffffffffffffffffffffffffffffff168152602001915050600060405180830381600087803b1580156111f757600080fd5b505af115801561120b573d6000803e3d6000fd5b50505050565b600060149054906101000a900460ff16611276576040517f08c379a00000000000000000000000000000000000000000000000000000000081526004018080602001828103825260258152602001806134c66025913960400191505060405180910390fd5b60003411801561128e5750670de0b6b3a76400003411155b6112e3576040517f08c379a00000000000000000000000000000000000000000000000000000000081526004018080602001828103825260288152602001806134496028913960400191505060405180910390fd5b600260009054906101000a900473ffffffffffffffffffffffffffffffffffffffff1673ffffffffffffffffffffffffffffffffffffffff1663e6143d95858585856040518563ffffffff167c0100000000000000000000000000000000000000000000000000000000028152600401808573ffffffffffffffffffffffffffffffffffffffff1673ffffffffffffffffffffffffffffffffffffffff168152602001806020018381526020018281038252858582818152602001925080828437600081840152601f19601f8201169050808301925050509550505050505060206040518083038186803b1580156113da57600080fd5b505afa1580156113ee573d6000803e3d6000fd5b505050506040513d602081101561140457600080fd5b8101908080519060200190929190505050611487576040517f08c379a00000000000000000000000000000000000000000000000000000000081526004018080602001828103825260188152602001807f466c69676874206973206e6f742072656769737465726564000000000000000081525060200191505060405180910390fd5b600260009054906101000a900473ffffffffffffffffffffffffffffffffffffffff1673ffffffffffffffffffffffffffffffffffffffff1663015ea1a0858585856040518563ffffffff167c0100000000000000000000000000000000000000000000000000000000028152600401808573ffffffffffffffffffffffffffffffffffffffff1673ffffffffffffffffffffffffffffffffffffffff168152602001806020018381526020018281038252858582818152602001925080828437600081840152601f19601f8201169050808301925050509550505050505060206040518083038186803b15801561157e57600080fd5b505afa158015611592573d6000803e3d6000fd5b505050506040513d60208110156115a857600080fd5b81019080805190602001909291905050501561162c576040517f08c379a00000000000000000000000000000000000000000000000000000000081526004018080602001828103825260158152602001807f466c6967687420616c7265616479206c616e646564000000000000000000000081525060200191505060405180910390fd5b600260009054906101000a900473ffffffffffffffffffffffffffffffffffffffff1673ffffffffffffffffffffffffffffffffffffffff1663c19b4fae33868686866040518663ffffffff167c0100000000000000000000000000000000000000000000000000000000028152600401808673ffffffffffffffffffffffffffffffffffffffff1673ffffffffffffffffffffffffffffffffffffffff1681526020018573ffffffffffffffffffffffffffffffffffffffff1673ffffffffffffffffffffffffffffffffffffffff168152602001806020018381526020018281038252858582818152602001925080828437600081840152601f19601f820116905080830192505050965050505050505060206040518083038186803b15801561175757600080fd5b505afa15801561176b573d6000803e3d6000fd5b505050506040513d602081101561178157600080fd5b8101908080519060200190929190505050156117e8576040517f08c379a00000000000000000000000000000000000000000000000000000000081526004018080602001828103825260328152602001806134716032913960400191505060405180910390fd5b600260009054906101000a900473ffffffffffffffffffffffffffffffffffffffff1673ffffffffffffffffffffffffffffffffffffffff166108fc349081150290604051600060405180830381858888f19350505050158015611850573d6000803e3d6000fd5b50600260009054906101000a900473ffffffffffffffffffffffffffffffffffffffff1673ffffffffffffffffffffffffffffffffffffffff1663a22a1af585858585333460966040518863ffffffff167c0100000000000000000000000000000000000000000000000000000000028152600401808873ffffffffffffffffffffffffffffffffffffffff1673ffffffffffffffffffffffffffffffffffffffff168152602001806020018681526020018573ffffffffffffffffffffffffffffffffffffffff1673ffffffffffffffffffffffffffffffffffffffff1681526020018481526020018381526020018281038252888882818152602001925080828437600081840152601f19601f82011690508083019250505098505050505050505050600060405180830381600087803b15801561198f57600080fd5b505af11580156119a3573d6000803e3d6000fd5b505050507fc1647762ee49a904197616f0bd3213b3b925a37d94f32d699214e1b7608582108484848433346096604051808873ffffffffffffffffffffffffffffffffffffffff1673ffffffffffffffffffffffffffffffffffffffff168152602001806020018681526020018573ffffffffffffffffffffffffffffffffffffffff1673ffffffffffffffffffffffffffffffffffffffff1681526020018481526020018381526020018281038252888882818152602001925080828437600081840152601f19601f8201169050808301925050509850505050505050505060405180910390a150505050565b600060149054906101000a900460ff16611af6576040517f08c379a00000000000000000000000000000000000000000000000000000000081526004018080602001828103825260258152602001806134c66025913960400191505060405180910390fd5b670de0b6b3a7640000341015611b74576040517f08c379a000000000000000000000000000000000000000000000000000000000815260040180806020018281038252601c8152602001807f526567697374726174696f6e206665652069732072657175697265640000000081525060200191505060405180910390fd5b611b7c6132bd565b611b8533612de7565b9050604051806040016040528060011515815260200182815250600360003373ffffffffffffffffffffffffffffffffffffffff1673ffffffffffffffffffffffffffffffffffffffff16815260200190815260200160002060008201518160000160006101000a81548160ff021916908315150217905550602082015181600101906003611c159291906132df565b5090505050565b600060149054906101000a900460ff16611c81576040517f08c379a00000000000000000000000000000000000000000000000000000000081526004018080602001828103825260258152602001806134c66025913960400191505060405180910390fd5b33600260009054906101000a900473ffffffffffffffffffffffffffffffffffffffff1673ffffffffffffffffffffffffffffffffffffffff1663f3ba4e1b826040518263ffffffff167c0100000000000000000000000000000000000000000000000000000000028152600401808273ffffffffffffffffffffffffffffffffffffffff1673ffffffffffffffffffffffffffffffffffffffff16815260200191505060206040518083038186803b158015611d3d57600080fd5b505afa158015611d51573d6000803e3d6000fd5b505050506040513d6020811015611d6757600080fd5b8101908080519060200190929190505050611dcd576040517f08c379a00000000000000000000000000000000000000000000000000000000081526004018080602001828103825260328152602001806134eb6032913960400191505060405180910390fd5b600260009054906101000a900473ffffffffffffffffffffffffffffffffffffffff1673ffffffffffffffffffffffffffffffffffffffff16633cc0be9c338686866040518563ffffffff167c0100000000000000000000000000000000000000000000000000000000028152600401808573ffffffffffffffffffffffffffffffffffffffff1673ffffffffffffffffffffffffffffffffffffffff168152602001806020018381526020018281038252858582818152602001925080828437600081840152601f19601f82011690508083019250505095505050505050600060405180830381600087803b158015611ec657600080fd5b505af1158015611eda573d6000803e3d6000fd5b505050507f34151dfe5f5d2e1a6ed2a8b951d1f9935b00b4711e31a6c7972eaee3b81c1f0233858585604051808573ffffffffffffffffffffffffffffffffffffffff1673ffffffffffffffffffffffffffffffffffffffff168152602001806020018381526020018281038252858582818152602001925080828437600081840152601f19601f8201169050808301925050509550505050505060405180910390a150505050565b611f8b6132bd565b600060149054906101000a900460ff16611ff0576040517f08c379a00000000000000000000000000000000000000000000000000000000081526004018080602001828103825260258152602001806134c66025913960400191505060405180910390fd5b600360003373ffffffffffffffffffffffffffffffffffffffff1673ffffffffffffffffffffffffffffffffffffffff16815260200190815260200160002060000160009054906101000a900460ff166120b2576040517f08c379a000000000000000000000000000000000000000000000000000000000815260040180806020018281038252601b8152602001807f4e6f74207265676973746572656420617320616e206f7261636c65000000000081525060200191505060405180910390fd5b600360003373ffffffffffffffffffffffffffffffffffffffff1673ffffffffffffffffffffffffffffffffffffffff168152602001908152602001600020600101600380602002604051908101604052809291908260038015612151576020028201916000905b82829054906101000a900460ff1660ff168152602001906001019060208260000104928301926001038202915080841161211a5790505b5050505050905090565b670de0b6b3a764000081565b600060149054906101000a900460ff166121cc576040517f08c379a00000000000000000000000000000000000000000000000000000000081526004018080602001828103825260258152602001806134c66025913960400191505060405180910390fd5b678ac7230489e8000034101561222d576040517f08c379a00000000000000000000000000000000000000000000000000000000081526004018080602001828103825260238152602001806134a36023913960400191505060405180910390fd5b600260009054906101000a900473ffffffffffffffffffffffffffffffffffffffff1673ffffffffffffffffffffffffffffffffffffffff166108fc349081150290604051600060405180830381858888f19350505050158015612295573d6000803e3d6000fd5b50600260009054906101000a900473ffffffffffffffffffffffffffffffffffffffff1673ffffffffffffffffffffffffffffffffffffffff16636fbb8798336040518263ffffffff167c0100000000000000000000000000000000000000000000000000000000028152600401808273ffffffffffffffffffffffffffffffffffffffff1673ffffffffffffffffffffffffffffffffffffffff168152602001915050600060405180830381600087803b15801561235357600080fd5b505af1158015612367573d6000803e3d6000fd5b505050507fe3e3c2f23f7445131259937f93b9ed0c075fe06c9d702be2d7ac549d0ec5fc323334604051808373ffffffffffffffffffffffffffffffffffffffff1673ffffffffffffffffffffffffffffffffffffffff1681526020018281526020019250505060405180910390a1565b6060600160008373ffffffffffffffffffffffffffffffffffffffff1673ffffffffffffffffffffffffffffffffffffffff16815260200190815260200160002080548060200260200160405190810160405280929190818152602001828054801561249957602002820191906000526020600020905b8160009054906101000a900473ffffffffffffffffffffffffffffffffffffffff1673ffffffffffffffffffffffffffffffffffffffff168152602001906001019080831161244f575b50505050509050919050565b600060149054906101000a900460ff1661250a576040517f08c379a00000000000000000000000000000000000000000000000000000000081526004018080602001828103825260258152602001806134c66025913960400191505060405180910390fd5b8560ff16600360003373ffffffffffffffffffffffffffffffffffffffff1673ffffffffffffffffffffffffffffffffffffffff16815260200190815260200160002060010160006003811061255c57fe5b602091828204019190069054906101000a900460ff1660ff1614806125e957508560ff16600360003373ffffffffffffffffffffffffffffffffffffffff1673ffffffffffffffffffffffffffffffffffffffff1681526020019081526020016000206001016001600381106125ce57fe5b602091828204019190069054906101000a900460ff1660ff16145b8061265c57508560ff16600360003373ffffffffffffffffffffffffffffffffffffffff1673ffffffffffffffffffffffffffffffffffffffff16815260200190815260200160002060010160026003811061264157fe5b602091828204019190069054906101000a900460ff1660ff16145b6126b1576040517f08c379a000000000000000000000000000000000000000000000000000000000815260040180806020018281038252602381526020018061351d6023913960400191505060405180910390fd5b60008686868686604051602001808660ff1660ff167f01000000000000000000000000000000000000000000000000000000000000000281526001018573ffffffffffffffffffffffffffffffffffffffff1673ffffffffffffffffffffffffffffffffffffffff166c0100000000000000000000000002815260140184848082843780830192505050828152602001955050505050506040516020818303038152906040528051906020012090506004600082815260200190815260200160002060000160149054906101000a900460ff166127d9576040517f08c379a000000000000000000000000000000000000000000000000000000000815260040180806020018281038252602f8152602001806133ed602f913960400191505060405180910390fd5b6004600082815260200190815260200160002060010160008360ff1660ff1681526020019081526020016000203390806001815401808255809150509060018203906000526020600020016000909192909190916101000a81548173ffffffffffffffffffffffffffffffffffffffff021916908373ffffffffffffffffffffffffffffffffffffffff160217905550507f43c853095c2752648493c88b4baac4d580d2594ffb00c6f1d4242d844514f7838686868686604051808673ffffffffffffffffffffffffffffffffffffffff1673ffffffffffffffffffffffffffffffffffffffff168152602001806020018481526020018360ff1660ff1681526020018281038252868682818152602001925080828437600081840152601f19601f820116905080830192505050965050505050505060405180910390a160036004600083815260200190815260200160002060010160008460ff1660ff1681526020019081526020016000208054905010612a4d577fe23f5229de535c091e3b7bec2665f5d698192d3b31393066e8987b7a05076b6c8686868686604051808673ffffffffffffffffffffffffffffffffffffffff1673ffffffffffffffffffffffffffffffffffffffff168152602001806020018481526020018360ff1660ff1681526020018281038252868682818152602001925080828437600081840152601f19601f820116905080830192505050965050505050505060405180910390a1612a4c8686868080601f016020809104026020016040519081016040528093929190818152602001838380828437600081840152601f19601f820116905080830192505050505050508585612f73565b5b50505050505050565b6060600260009054906101000a900473ffffffffffffffffffffffffffffffffffffffff1673ffffffffffffffffffffffffffffffffffffffff1663c23bcf096040518163ffffffff167c010000000000000000000000000000000000000000000000000000000002815260040160006040518083038186803b158015612adc57600080fd5b505afa158015612af0573d6000803e3d6000fd5b505050506040513d6000823e3d601f19601f820116820180604052506020811015612b1a57600080fd5b810190808051640100000000811115612b3257600080fd5b82810190506020810184811115612b4857600080fd5b8151856020820283011164010000000082111715612b6557600080fd5b5050929190505050905090565b60008060149054906101000a900460ff16905090565b6000806000612b9633613136565b905060008188888888604051602001808660ff1660ff167f01000000000000000000000000000000000000000000000000000000000000000281526001018573ffffffffffffffffffffffffffffffffffffffff1673ffffffffffffffffffffffffffffffffffffffff166c01000000000000000000000000028152601401848480828437808301925050508281526020019550505050505060405160208183030381529060405280519060200120905060405180604001604052803373ffffffffffffffffffffffffffffffffffffffff168152602001600115158152506004600083815260200190815260200160002060008201518160000160006101000a81548173ffffffffffffffffffffffffffffffffffffffff021916908373ffffffffffffffffffffffffffffffffffffffff16021790555060208201518160000160146101000a81548160ff0219169083151502179055509050507f3ed01f2c3fc24c6b329d931e35b03e390d23497d22b3f90e15b600343e93df118289898989604051808660ff1660ff1681526020018573ffffffffffffffffffffffffffffffffffffffff1673ffffffffffffffffffffffffffffffffffffffff168152602001806020018381526020018281038252858582818152602001925080828437600081840152601f19601f820116905080830192505050965050505050505060405180910390a1806004600083815260200190815260200160002060000160149054906101000a900460ff1693509350505094509492505050565b6000818381612dde57fe5b04905092915050565b612def6132bd565b612df76132bd565b612e0083613136565b81600060038110612e0d57fe5b602002019060ff16908160ff168152505080600060038110612e2b57fe5b602002015181600160038110612e3d57fe5b602002019060ff16908160ff16815250505b80600060038110612e5c57fe5b602002015160ff1681600160038110612e7157fe5b602002015160ff161415612eab57612e8883613136565b81600160038110612e9557fe5b602002019060ff16908160ff1681525050612e4f565b80600160038110612eb857fe5b602002015181600260038110612eca57fe5b602002019060ff16908160ff16815250505b80600060038110612ee957fe5b602002015160ff1681600260038110612efe57fe5b602002015160ff161480612f39575080600160038110612f1a57fe5b602002015160ff1681600260038110612f2f57fe5b602002015160ff16145b15612f6a57612f4783613136565b81600260038110612f5457fe5b602002019060ff16908160ff1681525050612edc565b80915050919050565b600060149054906101000a900460ff16612fd8576040517f08c379a00000000000000000000000000000000000000000000000000000000081526004018080602001828103825260258152602001806134c66025913960400191505060405180910390fd5b600260009054906101000a900473ffffffffffffffffffffffffffffffffffffffff1673ffffffffffffffffffffffffffffffffffffffff1663e7bdde3b858585856040518563ffffffff167c0100000000000000000000000000000000000000000000000000000000028152600401808573ffffffffffffffffffffffffffffffffffffffff1673ffffffffffffffffffffffffffffffffffffffff168152602001806020018481526020018360ff1660ff168152602001828103825285818151815260200191508051906020019080838360005b838110156130c95780820151818401526020810190506130ae565b50505050905090810190601f1680156130f65780820380516001836020036101000a031916815260200191505b5095505050505050600060405180830381600087803b15801561311857600080fd5b505af115801561312c573d6000803e3d6000fd5b5050505050505050565b600080600a905060008160ff166002601481819054906101000a900460ff168092919060010191906101000a81548160ff021916908360ff16021790555060ff1643034085604051602001808381526020018273ffffffffffffffffffffffffffffffffffffffff1673ffffffffffffffffffffffffffffffffffffffff166c01000000000000000000000000028152601401925050506040516020818303038152906040528051906020012060019004816131ee57fe5b06905060fa600260149054906101000a900460ff1660ff161115613229576000600260146101000a81548160ff021916908360ff1602179055505b8092505050919050565b8280548282559060005260206000209081019282156132ac579160200282015b828111156132ab5782518260006101000a81548173ffffffffffffffffffffffffffffffffffffffff021916908373ffffffffffffffffffffffffffffffffffffffff16021790555091602001919060010190613253565b5b5090506132b99190613379565b5090565b6040518060600160405280600390602082028038833980820191505090505090565b826003601f016020900481019282156133685791602002820160005b8382111561333957835183826101000a81548160ff021916908360ff16021790555092602001926001016020816000010492830192600103026132fb565b80156133665782816101000a81549060ff0219169055600101602081600001049283019260010302613339565b505b50905061337591906133bc565b5090565b6133b991905b808211156133b557600081816101000a81549073ffffffffffffffffffffffffffffffffffffffff02191690555060010161337f565b5090565b90565b6133e991905b808211156133e557600081816101000a81549060ff0219169055506001016133c2565b5090565b9056fe466c69676874206f722074696d657374616d7020646f206e6f74206d61746368206f7261636c6520726571756573744e6577206d6f6465206d75737420626520646966666572656e742066726f6d206578697374696e67206d6f6465496e737572616e63652076616c7565206973206e6f742077697468696e20746865206c696d69747350617373656e67657220616c726561647920626f7567687420696e737572616e636520666f72207468697320666c696768744e6f7420636f72726563742066756e64696e672076616c7565207375626d6974746564436f6e74726163742069732063757272656e746c79206e6f74206f7065726174696f6e616c4f6e6c79206578697374696e6720616e642066756e646564206169726c696e65732061726520616c6c6f7765642841707029496e64657820646f6573206e6f74206d61746368206f7261636c652072657175657374a265627a7a72305820ca107dac5dfec4f69716063ccfe2e913de2bc34e1212ebad5843081c8c0ac01c64736f6c634300050a0032",
  "source": "pragma solidity >=0.4.24;\n\n// It's important to avoid vulnerabilities due to numeric overflow bugs\n// OpenZeppelin's SafeMath library, when used correctly, protects agains such bugs\n// More info: https://www.nccgroup.trust/us/about-us/newsroom-and-events/blog/2018/november/smart-contract-insecurity-bad-arithmetic/\n\nimport \"../node_modules/openzeppelin-solidity/contracts/math/SafeMath.sol\";\n// import \"./FlightSuretyData.sol\";\n\n/************************************************** */\n/* FlightSurety Smart Contract                      */\n/************************************************** */\ncontract FlightSuretyApp {\n    using SafeMath for uint256; // Allow SafeMath functions to be called for all uint256 types (similar to \"prototype\" in Javascript)\n\n    /********************************************************************************************/\n    /*                                       DATA VARIABLES                                     */\n    /********************************************************************************************/\n\n    // Flight status codees\n    // uint8 private constant STATUS_CODE_UNKNOWN = 0;\n    // uint8 private constant STATUS_CODE_ON_TIME = 10;\n    // uint8 private constant STATUS_CODE_LATE_AIRLINE = 20;\n    // uint8 private constant STATUS_CODE_LATE_WEATHER = 30;\n    // uint8 private constant STATUS_CODE_LATE_TECHNICAL = 40;\n    // uint8 private constant STATUS_CODE_LATE_OTHER = 50;\n\n    // Registration of fifth and subsequent airlines requires multi-party consensus of 50% of registered airlines\n    uint constant REGISTER_AIRLINE_MULTI_CALL_THRESHOLD = 4;\n    uint constant REGISTER_AIRLINE_MULTI_CALL_CONSENSUS_DIVISOR = 2;\n\n    address private contractOwner;          // Account used to deploy contract\n\n    bool private operational = true;\n\n    // Multi-party consensus for airline registration\n    mapping(address => address[]) private registerAirlineMultiCalls;\n\n    // struct Flight {\n    //     bool isRegistered;\n    //     string name;\n    //     uint8 statusCode;\n    //     uint256 departure;\n    //     address airline;\n    // }\n\n    // struct Airline{\n    //     bool exists;\n    //     bool registered;\n    //     bool funded;\n    //     bytes32[] flightKeys;\n    //     Votes votes;\n    // }\n\n    // struct Votes{\n    //     uint votersCount;\n    //     mapping(address => bool) voters;\n    // }\n\n    // struct Insurance {\n    //     address buyer;\n    //     address airline;\n    //     string flightKey;\n    //     uint value;\n    //     bool isCredited;\n    // }\n\n  FlightSuretyData dataContract;\n\n  // Airline Ante: Airline can be registered, but does not participate in contract until it submits funding of 10 ether\n  uint constant AIRLINE_FUNDING_VALUE = 10 ether;\n\n  // Passenger Payment: Passengers may pay up to 1 ether for purchasing flight insurance\n  uint constant MAX_PASSENGER_INSURANCE_VALUE = 1 ether;\n\n  // Insurance multiplier in percentage\n  uint constant INSURANCE_MULTIPLIER = 150; // 150%\n\n    /********************************************************************************************/\n    /*                                       FUNCTION MODIFIERS                                 */\n    /********************************************************************************************/\n\n    // Modifiers help avoid duplication of code. They are typically used to validate something\n    // before a function is allowed to be executed.\n\n    /**\n    * @dev Modifier that requires the \"operational\" boolean variable to be \"true\"\n    *      This is used on all state changing functions to pause the contract in\n    *      the event there is an issue that needs to be fixed\n    */\n    modifier requireIsOperational()\n    {\n         // Modify to call data contract's status\n        require(operational, \"Contract is currently not operational\");\n        _;  // All modifiers require an \"_\" which indicates where the function body will be added\n    }\n\n    /**\n    * @dev Modifier that requires the \"ContractOwner\" account to be the function caller\n    */\n    modifier requireContractOwner()\n    {\n        require(msg.sender == contractOwner, \"Caller is not contract owner\");\n        _;\n    }\n\n    /**\n     * @dev Modifier that requires airline to be funded\n     */\n    modifier requireAirlineIsFunded(address airline) {\n        require(dataContract.isFundedAirline(airline), \"Only existing and funded airlines are allowed(App)\");\n        _;\n    }\n\n    /********************************************************************************************/\n    /*                                       CONSTRUCTOR                                        */\n    /********************************************************************************************/\n\n    /**\n    * @dev Contract constructor\n    *\n    */\n    constructor(address dataContractAddress) public\n    {\n        contractOwner = msg.sender;\n        dataContract = FlightSuretyData(dataContractAddress);\n    }\n\n    /********************************************************************************************/\n    /*                                       EVENT DEFINITIONS                                  */\n    /********************************************************************************************/\n\n    event AirlineRegistered(string name, address addr, bool result, uint256 votes);\n    event AirlineFunded(address airline, uint amount);\n    event FlightRegistered(address airline, string flightName, uint256 departureTime);\n    event InsuranceBought(address airline, string flight, uint256 timestamp, address passenger, uint256 amount, uint256 multiplier);\n\n    // Event fired each time an oracle submits a response\n    event FlightStatusInfo(address airline, string flight, uint256 timestamp, uint8 status);\n\n    event OracleReport(address airline, string flight, uint256 timestamp, uint8 status);\n\n    // Event fired when flight status request is submitted\n    // Oracles track this and if they have a matching index\n    // they fetch data and submit a response\n    event OracleRequest(uint8 index, address airline, string flight, uint256 timestamp);\n\n    event RegisteredCount(uint getRegisteredAirlinesCount);\n\n    /********************************************************************************************/\n    /*                                       UTILITY FUNCTIONS                                  */\n    /********************************************************************************************/\n\n    function isOperational() public view returns(bool)\n    {\n        return operational;  // Modify to call data contract's status\n    }\n\n    function setOperatingStatus(bool mode) external requireContractOwner {\n        require(mode != operational, \"New mode must be different from existing mode\");\n        operational = mode;\n    }\n\n    function getRegisteredAirlines() external view returns(address[] memory){\n      return dataContract.getRegisteredAirlines();\n    }\n    \n    function getRegisterAirlineMultiCalls(address airlineAddress) external view returns(address[] memory){\n        return registerAirlineMultiCalls[airlineAddress];\n    }\n    /********************************************************************************************/\n    /*                                     SMART CONTRACT FUNCTIONS                             */\n    /********************************************************************************************/\n\n\n   /**\n    * @dev Add an airline to the registration queue\n    *\n    */\n    function registerAirline\n    (string memory name, address addr) public\n     requireIsOperational returns(bool success, uint256 votes)\n    {\n        bool result = false;\n        uint registeredAirlinesCount = dataContract.getRegisteredAirlinesCount();\n\n        if(registeredAirlinesCount < REGISTER_AIRLINE_MULTI_CALL_THRESHOLD) {\n          result = dataContract.registerAirline(name, addr);\n        }\n        else {\n            bool isDuplicate = false;\n\n            for(uint i = 0; i < registerAirlineMultiCalls[addr].length; i++) {\n                if (registerAirlineMultiCalls[addr][i] == msg.sender) {\n                isDuplicate = true;\n                break;\n                }\n            }\n\n            require(!isDuplicate, \"Caller has already registered.\");\n\n            registerAirlineMultiCalls[addr].push(msg.sender);\n\n            if (registerAirlineMultiCalls[addr].length >= registeredAirlinesCount.div(REGISTER_AIRLINE_MULTI_CALL_CONSENSUS_DIVISOR)) {\n                result = dataContract.registerAirline(name, addr);\n                registerAirlineMultiCalls[addr] = new address[](0);\n            }\n        }\n\n    emit AirlineRegistered(name, addr, result, registerAirlineMultiCalls[addr].length);\n    return (result, registerAirlineMultiCalls[addr].length);\n    }\n\n    /**\n    * @dev Submit funding for airline\n    */\n    function fundAirline() external payable requireIsOperational {\n        require(msg.value >= AIRLINE_FUNDING_VALUE, \"Not correct funding value submitted\");\n\n        // Cast address to payable address\n        address(uint160(address(dataContract))).transfer(msg.value);\n\n        dataContract.fundAirline(msg.sender);\n\n        emit AirlineFunded(msg.sender, msg.value);\n    }\n\n   /**\n    * @dev Register a future flight for insuring.\n    *\n    */\n    function registerFlight(string calldata flightName, uint256 departureTime) external requireIsOperational requireAirlineIsFunded(msg.sender) {\n        dataContract.registerFlight(msg.sender, flightName, departureTime);\n        emit FlightRegistered(msg.sender, flightName, departureTime);\n    }\n\n   /**\n    * @dev Called after oracle has updated flight status\n    *\n    */\n    function processFlightStatus(\n    address airline,\n    string memory flight,\n    uint256 timestamp,\n    uint8 statusCode)\n    internal\n    requireIsOperational\n    {\n        dataContract.processFlightStatus(airline, flight, timestamp, statusCode);\n    }\n\n\n    // Generate a request for oracles to fetch flight information\n    function fetchFlightStatus\n                        (\n                            address airline,\n                            string calldata flight,\n                            uint256 timestamp\n                        )\n                        external returns(bytes32, bool)\n    {\n        uint8 index = getRandomIndex(msg.sender);\n\n        // Generate a unique key for storing the request\n        bytes32 key = keccak256(abi.encodePacked(index, airline, flight, timestamp));\n        oracleResponses[key] = ResponseInfo({\n                                                requester: msg.sender,\n                                                isOpen: true\n                                            });\n\n        emit OracleRequest(index, airline, flight, timestamp);\n        return (key, oracleResponses[key].isOpen);\n    }\n\n    /**\n    * @dev Buy insurance for a flight\n    */\n    function buyInsurance(address airline, string calldata flight, uint256 timestamp) external payable requireIsOperational {\n        require(msg.value > 0 && msg.value <= MAX_PASSENGER_INSURANCE_VALUE, \"Insurance value is not within the limits\");\n        require(dataContract.isFlight(airline, flight, timestamp), \"Flight is not registered\");\n        require(!dataContract.isLandedFlight(airline, flight, timestamp), \"Flight already landed\");\n        require(!dataContract.isInsured(msg.sender, airline, flight, timestamp), \"Passenger already bought insurance for this flight\");\n\n        // Cast address to payable address\n        address(uint160(address(dataContract))).transfer(msg.value);\n\n        dataContract.buy(airline, flight, timestamp, msg.sender, msg.value, INSURANCE_MULTIPLIER);\n\n        emit InsuranceBought(airline, flight, timestamp, msg.sender, msg.value, INSURANCE_MULTIPLIER);\n    }\n\n    function pay() public requireIsOperational {\n        dataContract.pay(msg.sender);\n    }\n\n// region ORACLE MANAGEMENT\n\n    // Incremented to add pseudo-randomness at various points\n    uint8 private nonce = 0;\n\n    // Fee to be paid when registering oracle\n    uint256 public constant REGISTRATION_FEE = 1 ether;\n\n    // Number of oracles that must respond for valid status\n    uint256 private constant MIN_RESPONSES = 3;\n\n\n    struct Oracle {\n        bool isRegistered;\n        uint8[3] indexes;\n    }\n\n    // Track all registered oracles\n    mapping(address => Oracle) private oracles;\n\n    // Model for responses from oracles\n    struct ResponseInfo {\n        address requester;                              // Account that requested status\n        bool isOpen;                                    // If open, oracle responses are accepted\n        mapping(uint8 => address[]) responses;          // Mapping key is the status code reported\n                                                        // This lets us group responses and identify\n                                                        // the response that majority of the oracles\n    }\n\n    // Track all oracle responses\n    // Key = hash(index, flight, timestamp)\n    mapping(bytes32 => ResponseInfo) private oracleResponses;\n\n  // Register an oracle with the contract\n  function registerOracle() external payable requireIsOperational {\n    // Require registration fee\n    require(msg.value >= REGISTRATION_FEE, \"Registration fee is required\");\n\n    uint8[3] memory indexes = generateIndexes(msg.sender);\n\n    oracles[msg.sender] = Oracle({isRegistered: true, indexes: indexes});\n  }\n\n  function getMyIndexes() external view requireIsOperational returns(uint8[3] memory) {\n    require(oracles[msg.sender].isRegistered, \"Not registered as an oracle\");\n    return oracles[msg.sender].indexes;\n  }\n\n  // Called by oracle when a response is available to an outstanding request\n  // For the response to be accepted, there must be a pending request that is open\n  // and matches one of the three Indexes randomly assigned to the oracle at the\n  // time of registration (i.e. uninvited oracles are not welcome)\n  function submitOracleResponse(uint8 index, address airline,\n                                string calldata flight, uint256 timestamp, uint8 statusCode)\n  external requireIsOperational {\n    require((oracles[msg.sender].indexes[0] == index) ||\n            (oracles[msg.sender].indexes[1] == index) ||\n            (oracles[msg.sender].indexes[2] == index), \"Index does not match oracle request\");\n\n    bytes32 key = keccak256(abi.encodePacked(index, airline, flight, timestamp));\n    require(oracleResponses[key].isOpen, \"Flight or timestamp do not match oracle request\");\n\n    oracleResponses[key].responses[statusCode].push(msg.sender);\n\n    // Information isn't considered verified until at least MIN_RESPONSES\n    // oracles respond with the *** same *** information\n    emit OracleReport(airline, flight, timestamp, statusCode);\n    if (oracleResponses[key].responses[statusCode].length >= MIN_RESPONSES) {\n      emit FlightStatusInfo(airline, flight, timestamp, statusCode);\n\n      // Handle flight status as appropriate\n      processFlightStatus(airline, flight, timestamp, statusCode);\n    }\n  }\n\n  function getFlightKey(address airline, string memory flight, uint256 timestamp) internal pure returns(bytes32) {\n    return keccak256(abi.encodePacked(airline, flight, timestamp));\n  }\n\n  // Returns array of three non-duplicating integers from 0-9\n  function generateIndexes(address account) internal returns(uint8[3] memory) {\n    uint8[3] memory indexes;\n    indexes[0] = getRandomIndex(account);\n    \n    indexes[1] = indexes[0];\n    while(indexes[1] == indexes[0]) {\n      indexes[1] = getRandomIndex(account);\n    }\n\n    indexes[2] = indexes[1];\n    while((indexes[2] == indexes[0]) || (indexes[2] == indexes[1])) {\n      indexes[2] = getRandomIndex(account);\n    }\n\n    return indexes;\n  }\n\n  // Returns array of three non-duplicating integers from 0-9\n  function getRandomIndex(address account) internal returns (uint8) {\n    uint8 maxValue = 10;\n\n    // Pseudo random number...the incrementing nonce adds variation\n    uint8 random = uint8(uint256(keccak256(abi.encodePacked(blockhash(block.number - nonce++), account))) % maxValue);\n\n    if (nonce > 250) {\n      nonce = 0;  // Can only fetch blockhashes for last 256 blocks so we adapt\n    }\n\n    return random;\n  }\n\n// endregion\n\n}\n\n// FlightSurety data contract interface stub\ncontract FlightSuretyData {\n  // Utility functions\n  function isOperational() public view returns(bool);\n  function setOperatingStatus(bool mode) external;\n\n  // Airlines\n  function registerAirline(string calldata name, address addr) external returns(bool);\n  function isAirline(address airline) external view returns(bool);\n  function isFundedAirline(address airline) external view returns(bool);\n  function getRegisteredAirlines() external view returns(address[] memory);\n  function fundAirline(address addr) external payable;\n  function getRegisteredAirlinesCount() external view returns(uint);\n\n  // Flights\n  function registerFlight(address airline, string calldata flight, uint256 timestamp) external;\n  function isFlight(address airline, string calldata flight, uint256 timestamp) external view returns(bool);\n  function isLandedFlight(address airline, string calldata flight, uint256 timestamp) external view returns(bool);\n  function processFlightStatus(address airline, string calldata flight, uint256 timestamp, uint8 statusCode) external;\n  function getFlightStatusCode(address airline, string calldata flight, uint256 timestamp) external view returns(uint8);\n\n  // Passengers\n  function buy(address airline, string calldata flight, uint256 timestamp,\n               address passenger, uint256 amount, uint256 multiplier) external payable;\n  function isInsured(address passenger, address airline, string calldata flight, uint256 timestamp) external view returns (bool);\n  function pay(address passenger) external;\n}",
  "sourcePath": "/Users/yifanxiao/Blockchain_nanodegree/Udacity_Blockchain_Dev/FlightSurety/contracts/FlightSuretyApp.sol",
  "compiler": {
    "name": "solc",
    "version": "0.5.10+commit.5a6ea5b1.Emscripten.clang"
  },
  "schemaVersion": "3.0.1",
  "updatedAt": "2019-06-30T09:16:42.462Z",
  "devdoc": {
    "methods": {
      "buyInsurance(address,string,uint256)": {
        "details": "Buy insurance for a flight"
      },
      "constructor": {
        "details": "Contract constructor    "
      },
      "fundAirline()": {
        "details": "Submit funding for airline"
      },
      "registerAirline(string,address)": {
        "details": "Add an airline to the registration queue    "
      },
      "registerFlight(string,uint256)": {
        "details": "Register a future flight for insuring.    "
      }
    }
  },
  "userdoc": {
    "methods": {
      "isOperational()": {
        "notice": "*****************************************************************************************"
      }
    },
    "notice": "************************************************ "
  }
}