{
  "contractName": "FlightSuretyData",
  "abi": [
    {
      "constant": true,
      "inputs": [
        {
          "name": "",
          "type": "address"
        }
      ],
      "name": "pendingPayments",
      "outputs": [
        {
          "name": "",
          "type": "uint256"
        }
      ],
      "payable": false,
      "stateMutability": "view",
      "type": "function",
      "signature": "0x7f38e526"
    },
    {
      "inputs": [
        {
          "name": "firstAirlineName",
          "type": "string"
        },
        {
          "name": "firstAirlineAddress",
          "type": "address"
        }
      ],
      "payable": false,
      "stateMutability": "nonpayable",
      "type": "constructor",
      "signature": "constructor"
    },
    {
      "payable": true,
      "stateMutability": "payable",
      "type": "fallback"
    },
    {
      "anonymous": false,
      "inputs": [
        {
          "indexed": false,
          "name": "airlineName",
          "type": "string"
        },
        {
          "indexed": false,
          "name": "airlineAddress",
          "type": "address"
        }
      ],
      "name": "AirlineRegistered",
      "type": "event",
      "signature": "0x4389233d1d7e817e3a41447176300b89c596c24ed4d58896d501ddb378abe2c4"
    },
    {
      "anonymous": false,
      "inputs": [
        {
          "indexed": false,
          "name": "airlineName",
          "type": "string"
        },
        {
          "indexed": false,
          "name": "airlineAddress",
          "type": "address"
        }
      ],
      "name": "AirlineFunded",
      "type": "event",
      "signature": "0xb79e695bf38dcea3887c0922d0f819d2c35e4197231fb49fc074b143a81feae2"
    },
    {
      "anonymous": false,
      "inputs": [
        {
          "indexed": false,
          "name": "flightKey",
          "type": "bytes32"
        },
        {
          "indexed": false,
          "name": "airline",
          "type": "address"
        },
        {
          "indexed": false,
          "name": "name",
          "type": "string"
        },
        {
          "indexed": false,
          "name": "timestamp",
          "type": "uint256"
        }
      ],
      "name": "FlightRegistered",
      "type": "event",
      "signature": "0x0d82c4651f01559b505cf25bdba0731c1e92d2cfc50a6932a64c096f79d892d6"
    },
    {
      "anonymous": false,
      "inputs": [
        {
          "indexed": false,
          "name": "airline",
          "type": "address"
        },
        {
          "indexed": false,
          "name": "flight",
          "type": "string"
        },
        {
          "indexed": false,
          "name": "timestamp",
          "type": "uint256"
        },
        {
          "indexed": false,
          "name": "passenger",
          "type": "address"
        },
        {
          "indexed": false,
          "name": "amount",
          "type": "uint256"
        },
        {
          "indexed": false,
          "name": "multiplier",
          "type": "uint256"
        }
      ],
      "name": "InsuranceBought",
      "type": "event",
      "signature": "0xc1647762ee49a904197616f0bd3213b3b925a37d94f32d699214e1b760858210"
    },
    {
      "anonymous": false,
      "inputs": [
        {
          "indexed": false,
          "name": "passenger",
          "type": "address"
        },
        {
          "indexed": false,
          "name": "amount",
          "type": "uint256"
        }
      ],
      "name": "InsureeCredited",
      "type": "event",
      "signature": "0x868591bb2b953c2ab9230c3d982fc24b5b255e5d8d9bcd0c1a5e6ad5cddccab6"
    },
    {
      "anonymous": false,
      "inputs": [
        {
          "indexed": false,
          "name": "passenger",
          "type": "address"
        },
        {
          "indexed": false,
          "name": "amount",
          "type": "uint256"
        }
      ],
      "name": "AccountWithdrawn",
      "type": "event",
      "signature": "0xdfeacc538b4e5daa9b6f7bd5267be179488543805cd27e8022d2883a4dc847d7"
    },
    {
      "anonymous": false,
      "inputs": [
        {
          "indexed": false,
          "name": "airline",
          "type": "address"
        },
        {
          "indexed": false,
          "name": "flight",
          "type": "string"
        },
        {
          "indexed": false,
          "name": "timestamp",
          "type": "uint256"
        },
        {
          "indexed": false,
          "name": "statusCode",
          "type": "uint8"
        }
      ],
      "name": "FlightStatusUpdated",
      "type": "event",
      "signature": "0x3f8930fd52e84bc32c0c2e5d060a9cfa59066160d5197e39f17d16ebbcaa7db6"
    },
    {
      "constant": true,
      "inputs": [],
      "name": "isOperational",
      "outputs": [
        {
          "name": "",
          "type": "bool"
        }
      ],
      "payable": false,
      "stateMutability": "view",
      "type": "function",
      "signature": "0xcd905dff"
    },
    {
      "constant": false,
      "inputs": [
        {
          "name": "mode",
          "type": "bool"
        }
      ],
      "name": "setOperatingStatus",
      "outputs": [],
      "payable": false,
      "stateMutability": "nonpayable",
      "type": "function",
      "signature": "0x110466ed"
    },
    {
      "constant": true,
      "inputs": [],
      "name": "getRegisteredAirlinesCount",
      "outputs": [
        {
          "name": "",
          "type": "uint256"
        }
      ],
      "payable": false,
      "stateMutability": "view",
      "type": "function",
      "signature": "0xf77890ea"
    },
    {
      "constant": true,
      "inputs": [
        {
          "name": "airline",
          "type": "address"
        },
        {
          "name": "name",
          "type": "string"
        },
        {
          "name": "timestamp",
          "type": "uint256"
        }
      ],
      "name": "getInsurancesCount",
      "outputs": [
        {
          "name": "",
          "type": "uint256"
        }
      ],
      "payable": false,
      "stateMutability": "view",
      "type": "function",
      "signature": "0x0788cb88"
    },
    {
      "constant": true,
      "inputs": [
        {
          "name": "airline",
          "type": "address"
        }
      ],
      "name": "getAirlineName",
      "outputs": [
        {
          "name": "",
          "type": "string"
        }
      ],
      "payable": false,
      "stateMutability": "view",
      "type": "function",
      "signature": "0x524b6100"
    },
    {
      "constant": true,
      "inputs": [
        {
          "name": "airline",
          "type": "address"
        }
      ],
      "name": "isAirline",
      "outputs": [
        {
          "name": "",
          "type": "bool"
        }
      ],
      "payable": false,
      "stateMutability": "view",
      "type": "function",
      "signature": "0x0e248a11"
    },
    {
      "constant": true,
      "inputs": [
        {
          "name": "airline",
          "type": "address"
        }
      ],
      "name": "isFundedAirline",
      "outputs": [
        {
          "name": "",
          "type": "bool"
        }
      ],
      "payable": false,
      "stateMutability": "view",
      "type": "function",
      "signature": "0xf3ba4e1b"
    },
    {
      "constant": true,
      "inputs": [],
      "name": "getRegisteredAirlines",
      "outputs": [
        {
          "name": "",
          "type": "address[]"
        }
      ],
      "payable": false,
      "stateMutability": "view",
      "type": "function",
      "signature": "0xc23bcf09"
    },
    {
      "constant": false,
      "inputs": [
        {
          "name": "contractAddress",
          "type": "address"
        }
      ],
      "name": "authorizeCaller",
      "outputs": [],
      "payable": false,
      "stateMutability": "nonpayable",
      "type": "function",
      "signature": "0x2c388d5d"
    },
    {
      "constant": false,
      "inputs": [
        {
          "name": "contractAddress",
          "type": "address"
        }
      ],
      "name": "deauthorizeCaller",
      "outputs": [],
      "payable": false,
      "stateMutability": "nonpayable",
      "type": "function",
      "signature": "0x6873c21d"
    },
    {
      "constant": true,
      "inputs": [
        {
          "name": "airline",
          "type": "address"
        },
        {
          "name": "flight",
          "type": "string"
        },
        {
          "name": "timestamp",
          "type": "uint256"
        }
      ],
      "name": "isFlight",
      "outputs": [
        {
          "name": "",
          "type": "bool"
        }
      ],
      "payable": false,
      "stateMutability": "view",
      "type": "function",
      "signature": "0xe6143d95"
    },
    {
      "constant": true,
      "inputs": [
        {
          "name": "airline",
          "type": "address"
        },
        {
          "name": "flight",
          "type": "string"
        },
        {
          "name": "timestamp",
          "type": "uint256"
        }
      ],
      "name": "isLandedFlight",
      "outputs": [
        {
          "name": "",
          "type": "bool"
        }
      ],
      "payable": false,
      "stateMutability": "view",
      "type": "function",
      "signature": "0x015ea1a0"
    },
    {
      "constant": true,
      "inputs": [
        {
          "name": "passenger",
          "type": "address"
        },
        {
          "name": "airline",
          "type": "address"
        },
        {
          "name": "flight",
          "type": "string"
        },
        {
          "name": "timestamp",
          "type": "uint256"
        }
      ],
      "name": "isInsured",
      "outputs": [
        {
          "name": "",
          "type": "bool"
        }
      ],
      "payable": false,
      "stateMutability": "view",
      "type": "function",
      "signature": "0xc19b4fae"
    },
    {
      "constant": false,
      "inputs": [
        {
          "name": "airlineName",
          "type": "string"
        },
        {
          "name": "airlineAddress",
          "type": "address"
        }
      ],
      "name": "registerAirline",
      "outputs": [
        {
          "name": "success",
          "type": "bool"
        }
      ],
      "payable": false,
      "stateMutability": "nonpayable",
      "type": "function",
      "signature": "0x0e2c4129"
    },
    {
      "constant": false,
      "inputs": [
        {
          "name": "addr",
          "type": "address"
        }
      ],
      "name": "fundAirline",
      "outputs": [],
      "payable": false,
      "stateMutability": "nonpayable",
      "type": "function",
      "signature": "0x6fbb8798"
    },
    {
      "constant": false,
      "inputs": [
        {
          "name": "airline",
          "type": "address"
        },
        {
          "name": "name",
          "type": "string"
        },
        {
          "name": "timestamp",
          "type": "uint256"
        }
      ],
      "name": "registerFlight",
      "outputs": [],
      "payable": false,
      "stateMutability": "nonpayable",
      "type": "function",
      "signature": "0x3cc0be9c"
    },
    {
      "constant": false,
      "inputs": [
        {
          "name": "airline",
          "type": "address"
        },
        {
          "name": "flight",
          "type": "string"
        },
        {
          "name": "timestamp",
          "type": "uint256"
        },
        {
          "name": "passenger",
          "type": "address"
        },
        {
          "name": "amount",
          "type": "uint256"
        },
        {
          "name": "multiplier",
          "type": "uint256"
        }
      ],
      "name": "buy",
      "outputs": [],
      "payable": true,
      "stateMutability": "payable",
      "type": "function",
      "signature": "0xa22a1af5"
    },
    {
      "constant": false,
      "inputs": [
        {
          "name": "airline",
          "type": "address"
        },
        {
          "name": "flight",
          "type": "string"
        },
        {
          "name": "timestamp",
          "type": "uint256"
        },
        {
          "name": "statusCode",
          "type": "uint8"
        }
      ],
      "name": "processFlightStatus",
      "outputs": [],
      "payable": false,
      "stateMutability": "nonpayable",
      "type": "function",
      "signature": "0xe7bdde3b"
    },
    {
      "constant": false,
      "inputs": [
        {
          "name": "passenger",
          "type": "address"
        }
      ],
      "name": "pay",
      "outputs": [],
      "payable": false,
      "stateMutability": "nonpayable",
      "type": "function",
      "signature": "0x0c11dedd"
    },
    {
      "constant": false,
      "inputs": [
        {
          "name": "_sender",
          "type": "address"
        }
      ],
      "name": "fund",
      "outputs": [],
      "payable": true,
      "stateMutability": "payable",
      "type": "function",
      "signature": "0x23024408"
    }
  ],
  "bytecode": "0x60806040526001600060146101000a81548160ff0219169083151502179055506000604051908082528060200260200182016040528015620000505781602001602082028038833980820191505090505b50600290805190602001906200006892919062000359565b5060006040519080825280602002602001820160405280156200009a5781602001602082028038833980820191505090505b5060039080519060200190620000b292919062000359565b506000604051908082528060200260200182016040528015620000e45781602001602082028038833980820191505090505b5060069080519060200190620000fc929190620003e8565b503480156200010a57600080fd5b506040516200380938038062003809833981810160405260408110156200013057600080fd5b8101908080516401000000008111156200014957600080fd5b828101905060208101848111156200016057600080fd5b81518560018202830111640100000000821117156200017e57600080fd5b505092919060200180519060200190929190505050336000806101000a81548173ffffffffffffffffffffffffffffffffffffffff021916908373ffffffffffffffffffffffffffffffffffffffff16021790555060405180608001604052806001151581526020016000151581526020018381526020016000604051908082528060200260200182016040528015620002275781602001602082028038833980820191505090505b50815250600160008373ffffffffffffffffffffffffffffffffffffffff1673ffffffffffffffffffffffffffffffffffffffff16815260200190815260200160002060008201518160000160006101000a81548160ff02191690831515021790555060208201518160000160016101000a81548160ff0219169083151502179055506040820151816001019080519060200190620002c89291906200043a565b506060820151816002019080519060200190620002e7929190620004c1565b5090505060028190806001815401808255809150509060018203906000526020600020016000909192909190916101000a81548173ffffffffffffffffffffffffffffffffffffffff021916908373ffffffffffffffffffffffffffffffffffffffff160217905550505050620005a9565b828054828255906000526020600020908101928215620003d5579160200282015b82811115620003d45782518260006101000a81548173ffffffffffffffffffffffffffffffffffffffff021916908373ffffffffffffffffffffffffffffffffffffffff160217905550916020019190600101906200037a565b5b509050620003e4919062000513565b5090565b82805482825590600052602060002090810192821562000427579160200282015b828111156200042657825182559160200191906001019062000409565b5b50905062000436919062000559565b5090565b828054600181600116156101000203166002900490600052602060002090601f016020900481019282601f106200047d57805160ff1916838001178555620004ae565b82800160010185558215620004ae579182015b82811115620004ad57825182559160200191906001019062000490565b5b509050620004bd919062000581565b5090565b82805482825590600052602060002090810192821562000500579160200282015b82811115620004ff578251825591602001919060010190620004e2565b5b5090506200050f919062000559565b5090565b6200055691905b808211156200055257600081816101000a81549073ffffffffffffffffffffffffffffffffffffffff0219169055506001016200051a565b5090565b90565b6200057e91905b808211156200057a57600081600090555060010162000560565b5090565b90565b620005a691905b80821115620005a257600081600090555060010162000588565b5090565b90565b61325080620005b96000396000f3fe608060405260043610610147576000357c0100000000000000000000000000000000000000000000000000000000900480636873c21d116100c8578063c23bcf091161008c578063c23bcf09146109a1578063cd905dff14610a0d578063e6143d9514610a3c578063e7bdde3b14610b04578063f3ba4e1b14610bc1578063f77890ea14610c2a57610147565b80636873c21d146106db5780636fbb87981461072c5780637f38e5261461077d578063a22a1af5146107e2578063c19b4fae146108b957610147565b8063110466ed1161010f578063110466ed1461048f57806323024408146104cc5780632c388d5d146105105780633cc0be9c14610561578063524b61001461061157610147565b8063015ea1a0146101495780630788cb88146102115780630c11dedd146102d55780630e248a11146103265780630e2c41291461038f575b005b34801561015557600080fd5b506101f76004803603606081101561016c57600080fd5b81019080803573ffffffffffffffffffffffffffffffffffffffff169060200190929190803590602001906401000000008111156101a957600080fd5b8201836020820111156101bb57600080fd5b803590602001918460018302840111640100000000831117156101dd57600080fd5b909192939192939080359060200190929190505050610c55565b604051808215151515815260200191505060405180910390f35b34801561021d57600080fd5b506102bf6004803603606081101561023457600080fd5b81019080803573ffffffffffffffffffffffffffffffffffffffff1690602001909291908035906020019064010000000081111561027157600080fd5b82018360208201111561028357600080fd5b803590602001918460018302840111640100000000831117156102a557600080fd5b909192939192939080359060200190929190505050610cdb565b6040518082815260200191505060405180910390f35b3480156102e157600080fd5b50610324600480360360208110156102f857600080fd5b81019080803573ffffffffffffffffffffffffffffffffffffffff169060200190929190505050610d51565b005b34801561033257600080fd5b506103756004803603602081101561034957600080fd5b81019080803573ffffffffffffffffffffffffffffffffffffffff1690602001909291905050506110c6565b604051808215151515815260200191505060405180910390f35b34801561039b57600080fd5b50610475600480360360408110156103b257600080fd5b81019080803590602001906401000000008111156103cf57600080fd5b8201836020820111156103e157600080fd5b8035906020019184600183028401116401000000008311171561040357600080fd5b91908080601f016020809104026020016040519081016040528093929190818152602001838380828437600081840152601f19601f820116905080830192505050505050509192919290803573ffffffffffffffffffffffffffffffffffffffff16906020019092919050505061111f565b604051808215151515815260200191505060405180910390f35b34801561049b57600080fd5b506104ca600480360360208110156104b257600080fd5b8101908080351515906020019092919050505061153f565b005b61050e600480360360208110156104e257600080fd5b81019080803573ffffffffffffffffffffffffffffffffffffffff16906020019092919050505061161e565b005b34801561051c57600080fd5b5061055f6004803603602081101561053357600080fd5b81019080803573ffffffffffffffffffffffffffffffffffffffff16906020019092919050505061167b565b005b34801561056d57600080fd5b5061060f6004803603606081101561058457600080fd5b81019080803573ffffffffffffffffffffffffffffffffffffffff169060200190929190803590602001906401000000008111156105c157600080fd5b8201836020820111156105d357600080fd5b803590602001918460018302840111640100000000831117156105f557600080fd5b909192939192939080359060200190929190505050611785565b005b34801561061d57600080fd5b506106606004803603602081101561063457600080fd5b81019080803573ffffffffffffffffffffffffffffffffffffffff169060200190929190505050611c3a565b6040518080602001828103825283818151815260200191508051906020019080838360005b838110156106a0578082015181840152602081019050610685565b50505050905090810190601f1680156106cd5780820380516001836020036101000a031916815260200191505b509250505060405180910390f35b3480156106e757600080fd5b5061072a600480360360208110156106fe57600080fd5b81019080803573ffffffffffffffffffffffffffffffffffffffff169060200190929190505050611d1e565b005b34801561073857600080fd5b5061077b6004803603602081101561074f57600080fd5b81019080803573ffffffffffffffffffffffffffffffffffffffff169060200190929190505050611e26565b005b34801561078957600080fd5b506107cc600480360360208110156107a057600080fd5b81019080803573ffffffffffffffffffffffffffffffffffffffff1690602001909291905050506120cb565b6040518082815260200191505060405180910390f35b6108b7600480360360c08110156107f857600080fd5b81019080803573ffffffffffffffffffffffffffffffffffffffff1690602001909291908035906020019064010000000081111561083557600080fd5b82018360208201111561084757600080fd5b8035906020019184600183028401116401000000008311171561086957600080fd5b909192939192939080359060200190929190803573ffffffffffffffffffffffffffffffffffffffff16906020019092919080359060200190929190803590602001909291905050506120e3565b005b3480156108c557600080fd5b50610987600480360360808110156108dc57600080fd5b81019080803573ffffffffffffffffffffffffffffffffffffffff169060200190929190803573ffffffffffffffffffffffffffffffffffffffff1690602001909291908035906020019064010000000081111561093957600080fd5b82018360208201111561094b57600080fd5b8035906020019184600183028401116401000000008311171561096d57600080fd5b909192939192939080359060200190929190505050612496565b604051808215151515815260200191505060405180910390f35b3480156109ad57600080fd5b506109b66126b0565b6040518080602001828103825283818151815260200191508051906020019060200280838360005b838110156109f95780820151818401526020810190506109de565b505050509050019250505060405180910390f35b348015610a1957600080fd5b50610a2261273e565b604051808215151515815260200191505060405180910390f35b348015610a4857600080fd5b50610aea60048036036060811015610a5f57600080fd5b81019080803573ffffffffffffffffffffffffffffffffffffffff16906020019092919080359060200190640100000000811115610a9c57600080fd5b820183602082011115610aae57600080fd5b80359060200191846001830284011164010000000083111715610ad057600080fd5b909192939192939080359060200190929190505050612754565b604051808215151515815260200191505060405180910390f35b348015610b1057600080fd5b50610bbf60048036036080811015610b2757600080fd5b81019080803573ffffffffffffffffffffffffffffffffffffffff16906020019092919080359060200190640100000000811115610b6457600080fd5b820183602082011115610b7657600080fd5b80359060200191846001830284011164010000000083111715610b9857600080fd5b909192939192939080359060200190929190803560ff1690602001909291905050506127d2565b005b348015610bcd57600080fd5b50610c1060048036036020811015610be457600080fd5b81019080803573ffffffffffffffffffffffffffffffffffffffff169060200190929190505050612ab5565b604051808215151515815260200191505060405180910390f35b348015610c3657600080fd5b50610c3f612b0e565b6040518082815260200191505060405180910390f35b60008060ff1660056000610cae8888888080601f016020809104026020016040519081016040528093929190818152602001838380828437600081840152601f19601f8201169050808301925050505050505087612b1b565b815260200190815260200160002060020160009054906101000a900460ff1660ff16119050949350505050565b600080610d2d8686868080601f016020809104026020016040519081016040528093929190818152602001838380828437600081840152601f19601f8201169050808301925050505050505085612b1b565b90506007600082815260200190815260200160002080549050915050949350505050565b600060149054906101000a900460ff16610db6576040517f08c379a00000000000000000000000000000000000000000000000000000000081526004018080602001828103825260258152602001806131a16025913960400191505060405180910390fd5b6001600960003373ffffffffffffffffffffffffffffffffffffffff1673ffffffffffffffffffffffffffffffffffffffff1681526020019081526020016000205414610e6b576040517f08c379a00000000000000000000000000000000000000000000000000000000081526004018080602001828103825260188152602001807f43616c6c6572206973206e6f7420617574686f72697a6564000000000000000081525060200191505060405180910390fd5b3373ffffffffffffffffffffffffffffffffffffffff168173ffffffffffffffffffffffffffffffffffffffff1614610eef576040517f08c379a00000000000000000000000000000000000000000000000000000000081526004018080602001828103825260298152602001806131566029913960400191505060405180910390fd5b6000600860008373ffffffffffffffffffffffffffffffffffffffff1673ffffffffffffffffffffffffffffffffffffffff1681526020019081526020016000205411610f87576040517f08c379a000000000000000000000000000000000000000000000000000000000815260040180806020018281038252602281526020018061317f6022913960400191505060405180910390fd5b6000600860008373ffffffffffffffffffffffffffffffffffffffff1673ffffffffffffffffffffffffffffffffffffffff1681526020019081526020016000205490506000600860008473ffffffffffffffffffffffffffffffffffffffff1673ffffffffffffffffffffffffffffffffffffffff168152602001908152602001600020819055508173ffffffffffffffffffffffffffffffffffffffff166108fc829081150290604051600060405180830381858888f19350505050158015611056573d6000803e3d6000fd5b507fdfeacc538b4e5daa9b6f7bd5267be179488543805cd27e8022d2883a4dc847d78282604051808373ffffffffffffffffffffffffffffffffffffffff1673ffffffffffffffffffffffffffffffffffffffff1681526020018281526020019250505060405180910390a15050565b6000600160008373ffffffffffffffffffffffffffffffffffffffff1673ffffffffffffffffffffffffffffffffffffffff16815260200190815260200160002060000160009054906101000a900460ff169050919050565b60008060149054906101000a900460ff16611185576040517f08c379a00000000000000000000000000000000000000000000000000000000081526004018080602001828103825260258152602001806131a16025913960400191505060405180910390fd5b6001600960003373ffffffffffffffffffffffffffffffffffffffff1673ffffffffffffffffffffffffffffffffffffffff168152602001908152602001600020541461123a576040517f08c379a00000000000000000000000000000000000000000000000000000000081526004018080602001828103825260188152602001807f43616c6c6572206973206e6f7420617574686f72697a6564000000000000000081525060200191505060405180910390fd5b60006001905060001515600160008573ffffffffffffffffffffffffffffffffffffffff1673ffffffffffffffffffffffffffffffffffffffff16815260200190815260200160002060000160009054906101000a900460ff161515146112ec576040517f08c379a00000000000000000000000000000000000000000000000000000000081526004018080602001828103825260238152602001806131f96023913960400191505060405180910390fd5b6040518060800160405280600115158152602001600015158152602001858152602001600060405190808252806020026020018201604052801561133f5781602001602082028038833980820191505090505b50815250600160008573ffffffffffffffffffffffffffffffffffffffff1673ffffffffffffffffffffffffffffffffffffffff16815260200190815260200160002060008201518160000160006101000a81548160ff02191690831515021790555060208201518160000160016101000a81548160ff02191690831515021790555060408201518160010190805190602001906113de929190612fbf565b5060608201518160020190805190602001906113fb92919061303f565b5090505060028390806001815401808255809150509060018203906000526020600020016000909192909190916101000a81548173ffffffffffffffffffffffffffffffffffffffff021916908373ffffffffffffffffffffffffffffffffffffffff160217905550507f4389233d1d7e817e3a41447176300b89c596c24ed4d58896d501ddb378abe2c4848460405180806020018373ffffffffffffffffffffffffffffffffffffffff1673ffffffffffffffffffffffffffffffffffffffff168152602001828103825284818151815260200191508051906020019080838360005b838110156114fa5780820151818401526020810190506114df565b50505050905090810190601f1680156115275780820380516001836020036101000a031916815260200191505b50935050505060405180910390a18091505092915050565b6000809054906101000a900473ffffffffffffffffffffffffffffffffffffffff1673ffffffffffffffffffffffffffffffffffffffff163373ffffffffffffffffffffffffffffffffffffffff1614611601576040517f08c379a000000000000000000000000000000000000000000000000000000000815260040180806020018281038252601c8152602001807f43616c6c6572206973206e6f7420636f6e7472616374206f776e65720000000081525060200191505060405180910390fd5b80600060146101000a81548160ff02191690831515021790555050565b60018060008373ffffffffffffffffffffffffffffffffffffffff1673ffffffffffffffffffffffffffffffffffffffff16815260200190815260200160002060000160016101000a81548160ff02191690831515021790555050565b6000809054906101000a900473ffffffffffffffffffffffffffffffffffffffff1673ffffffffffffffffffffffffffffffffffffffff163373ffffffffffffffffffffffffffffffffffffffff161461173d576040517f08c379a000000000000000000000000000000000000000000000000000000000815260040180806020018281038252601c8152602001807f43616c6c6572206973206e6f7420636f6e7472616374206f776e65720000000081525060200191505060405180910390fd5b6001600960008373ffffffffffffffffffffffffffffffffffffffff1673ffffffffffffffffffffffffffffffffffffffff1681526020019081526020016000208190555050565b600060149054906101000a900460ff166117ea576040517f08c379a00000000000000000000000000000000000000000000000000000000081526004018080602001828103825260258152602001806131a16025913960400191505060405180910390fd5b6001600960003373ffffffffffffffffffffffffffffffffffffffff1673ffffffffffffffffffffffffffffffffffffffff168152602001908152602001600020541461189f576040517f08c379a00000000000000000000000000000000000000000000000000000000081526004018080602001828103825260188152602001807f43616c6c6572206973206e6f7420617574686f72697a6564000000000000000081525060200191505060405180910390fd5b83600160008273ffffffffffffffffffffffffffffffffffffffff1673ffffffffffffffffffffffffffffffffffffffff16815260200190815260200160002060000160019054906101000a900460ff16611945576040517f08c379a00000000000000000000000000000000000000000000000000000000081526004018080602001828103825260338152602001806131c66033913960400191505060405180910390fd5b60006119968686868080601f016020809104026020016040519081016040528093929190818152602001838380828437600081840152601f19601f8201169050808301925050505050505085612b1b565b90506005600082815260200190815260200160002060000160009054906101000a900460ff1615611a12576040517f08c379a00000000000000000000000000000000000000000000000000000000081526004018080602001828103825260228152602001806131346022913960400191505060405180910390fd5b6040518060a0016040528060011515815260200186868080601f016020809104026020016040519081016040528093929190818152602001838380828437600081840152601f19601f820116905080830192505050505050508152602001600060ff1681526020018481526020018773ffffffffffffffffffffffffffffffffffffffff168152506005600083815260200190815260200160002060008201518160000160006101000a81548160ff0219169083151502179055506020820151816001019080519060200190611ae9929190612fbf565b5060408201518160020160006101000a81548160ff021916908360ff1602179055506060820151816003015560808201518160040160006101000a81548173ffffffffffffffffffffffffffffffffffffffff021916908373ffffffffffffffffffffffffffffffffffffffff16021790555090505060068190806001815401808255809150509060018203906000526020600020016000909192909190915055507f0d82c4651f01559b505cf25bdba0731c1e92d2cfc50a6932a64c096f79d892d68187878787604051808681526020018573ffffffffffffffffffffffffffffffffffffffff1673ffffffffffffffffffffffffffffffffffffffff168152602001806020018381526020018281038252858582818152602001925080828437600081840152601f19601f820116905080830192505050965050505050505060405180910390a1505050505050565b6060600160008373ffffffffffffffffffffffffffffffffffffffff1673ffffffffffffffffffffffffffffffffffffffff1681526020019081526020016000206001018054600181600116156101000203166002900480601f016020809104026020016040519081016040528092919081815260200182805460018160011615610100020316600290048015611d125780601f10611ce757610100808354040283529160200191611d12565b820191906000526020600020905b815481529060010190602001808311611cf557829003601f168201915b50505050509050919050565b6000809054906101000a900473ffffffffffffffffffffffffffffffffffffffff1673ffffffffffffffffffffffffffffffffffffffff163373ffffffffffffffffffffffffffffffffffffffff1614611de0576040517f08c379a000000000000000000000000000000000000000000000000000000000815260040180806020018281038252601c8152602001807f43616c6c6572206973206e6f7420636f6e7472616374206f776e65720000000081525060200191505060405180910390fd5b600960008273ffffffffffffffffffffffffffffffffffffffff1673ffffffffffffffffffffffffffffffffffffffff1681526020019081526020016000206000905550565b600060149054906101000a900460ff16611e8b576040517f08c379a00000000000000000000000000000000000000000000000000000000081526004018080602001828103825260258152602001806131a16025913960400191505060405180910390fd5b6001600960003373ffffffffffffffffffffffffffffffffffffffff1673ffffffffffffffffffffffffffffffffffffffff1681526020019081526020016000205414611f40576040517f08c379a00000000000000000000000000000000000000000000000000000000081526004018080602001828103825260188152602001807f43616c6c6572206973206e6f7420617574686f72697a6564000000000000000081525060200191505060405180910390fd5b60018060008373ffffffffffffffffffffffffffffffffffffffff1673ffffffffffffffffffffffffffffffffffffffff16815260200190815260200160002060000160016101000a81548160ff0219169083151502179055507fb79e695bf38dcea3887c0922d0f819d2c35e4197231fb49fc074b143a81feae2600160008373ffffffffffffffffffffffffffffffffffffffff1673ffffffffffffffffffffffffffffffffffffffff1681526020019081526020016000206001018260405180806020018373ffffffffffffffffffffffffffffffffffffffff1673ffffffffffffffffffffffffffffffffffffffff1681526020018281038252848181546001816001161561010002031660029004815260200191508054600181600116156101000203166002900480156120b95780601f1061208e576101008083540402835291602001916120b9565b820191906000526020600020905b81548152906001019060200180831161209c57829003601f168201915b5050935050505060405180910390a150565b60086020528060005260406000206000915090505481565b600060149054906101000a900460ff16612148576040517f08c379a00000000000000000000000000000000000000000000000000000000081526004018080602001828103825260258152602001806131a16025913960400191505060405180910390fd5b6001600960003373ffffffffffffffffffffffffffffffffffffffff1673ffffffffffffffffffffffffffffffffffffffff16815260200190815260200160002054146121fd576040517f08c379a00000000000000000000000000000000000000000000000000000000081526004018080602001828103825260188152602001807f43616c6c6572206973206e6f7420617574686f72697a6564000000000000000081525060200191505060405180910390fd5b600061224e8888888080601f016020809104026020016040519081016040528093929190818152602001838380828437600081840152601f19601f8201169050808301925050505050505087612b1b565b9050600760008281526020019081526020016000206040518060a001604052808673ffffffffffffffffffffffffffffffffffffffff1681526020018a73ffffffffffffffffffffffffffffffffffffffff168152602001858152602001848152602001600015158152509080600181540180825580915050906001820390600052602060002090600502016000909192909190915060008201518160000160006101000a81548173ffffffffffffffffffffffffffffffffffffffff021916908373ffffffffffffffffffffffffffffffffffffffff16021790555060208201518160010160006101000a81548173ffffffffffffffffffffffffffffffffffffffff021916908373ffffffffffffffffffffffffffffffffffffffff160217905550604082015181600201556060820151816003015560808201518160040160006101000a81548160ff0219169083151502179055505050507fc1647762ee49a904197616f0bd3213b3b925a37d94f32d699214e1b76085821088888888888888604051808873ffffffffffffffffffffffffffffffffffffffff1673ffffffffffffffffffffffffffffffffffffffff168152602001806020018681526020018573ffffffffffffffffffffffffffffffffffffffff1673ffffffffffffffffffffffffffffffffffffffff1681526020018481526020018381526020018281038252888882818152602001925080828437600081840152601f19601f8201169050808301925050509850505050505050505060405180910390a15050505050505050565b60006060600760006124ed8888888080601f016020809104026020016040519081016040528093929190818152602001838380828437600081840152601f19601f8201169050808301925050505050505087612b1b565b8152602001908152602001600020805480602002602001604051908101604052809291908181526020016000905b8282101561262857838290600052602060002090600502016040518060a00160405290816000820160009054906101000a900473ffffffffffffffffffffffffffffffffffffffff1673ffffffffffffffffffffffffffffffffffffffff1673ffffffffffffffffffffffffffffffffffffffff1681526020016001820160009054906101000a900473ffffffffffffffffffffffffffffffffffffffff1673ffffffffffffffffffffffffffffffffffffffff1673ffffffffffffffffffffffffffffffffffffffff16815260200160028201548152602001600382015481526020016004820160009054906101000a900460ff1615151515815250508152602001906001019061251b565b50505050905060008090505b81518110156126a0578773ffffffffffffffffffffffffffffffffffffffff1682828151811061266057fe5b60200260200101516000015173ffffffffffffffffffffffffffffffffffffffff161415612693576001925050506126a7565b8080600101915050612634565b5060009150505b95945050505050565b6060600280548060200260200160405190810160405280929190818152602001828054801561273457602002820191906000526020600020905b8160009054906101000a900473ffffffffffffffffffffffffffffffffffffffff1673ffffffffffffffffffffffffffffffffffffffff16815260200190600101908083116126ea575b5050505050905090565b60008060149054906101000a900460ff16905090565b6000600560006127a98787878080601f016020809104026020016040519081016040528093929190818152602001838380828437600081840152601f19601f8201169050808301925050505050505086612b1b565b815260200190815260200160002060000160009054906101000a900460ff169050949350505050565b600060149054906101000a900460ff16612837576040517f08c379a00000000000000000000000000000000000000000000000000000000081526004018080602001828103825260258152602001806131a16025913960400191505060405180910390fd5b6001600960003373ffffffffffffffffffffffffffffffffffffffff1673ffffffffffffffffffffffffffffffffffffffff16815260200190815260200160002054146128ec576040517f08c379a00000000000000000000000000000000000000000000000000000000081526004018080602001828103825260188152602001807f43616c6c6572206973206e6f7420617574686f72697a6564000000000000000081525060200191505060405180910390fd5b600061293d8686868080601f016020809104026020016040519081016040528093929190818152602001838380828437600081840152601f19601f8201169050808301925050505050505085612b1b565b9050600060ff166005600083815260200190815260200160002060020160009054906101000a900460ff1660ff161415612a0057816005600083815260200190815260200160002060020160006101000a81548160ff021916908360ff160217905550601460ff168260ff1614156129ff576129fe8686868080601f016020809104026020016040519081016040528093929190818152602001838380828437600081840152601f19601f8201169050808301925050505050505085612be3565b5b5b7f3f8930fd52e84bc32c0c2e5d060a9cfa59066160d5197e39f17d16ebbcaa7db68686868686604051808673ffffffffffffffffffffffffffffffffffffffff1673ffffffffffffffffffffffffffffffffffffffff168152602001806020018481526020018360ff1660ff1681526020018281038252868682818152602001925080828437600081840152601f19601f820116905080830192505050965050505050505060405180910390a1505050505050565b6000600160008373ffffffffffffffffffffffffffffffffffffffff1673ffffffffffffffffffffffffffffffffffffffff16815260200190815260200160002060000160019054906101000a900460ff169050919050565b6000600280549050905090565b6000838383604051602001808473ffffffffffffffffffffffffffffffffffffffff1673ffffffffffffffffffffffffffffffffffffffff166c0100000000000000000000000002815260140183805190602001908083835b60208310612b975780518252602082019150602081019050602083039250612b74565b6001836020036101000a03801982511681845116808217855250505050505090500182815260200193505050506040516020818303038152906040528051906020012090509392505050565b600060149054906101000a900460ff16612c48576040517f08c379a00000000000000000000000000000000000000000000000000000000081526004018080602001828103825260258152602001806131a16025913960400191505060405180910390fd5b6001600960003373ffffffffffffffffffffffffffffffffffffffff1673ffffffffffffffffffffffffffffffffffffffff1681526020019081526020016000205414612cfd576040517f08c379a00000000000000000000000000000000000000000000000000000000081526004018080602001828103825260188152602001807f43616c6c6572206973206e6f7420617574686f72697a6564000000000000000081525060200191505060405180910390fd5b6000612d0a848484612b1b565b905060008090505b6007600083815260200190815260200160002080549050811015612f7057612d3861308c565b600760008481526020019081526020016000208281548110612d5657fe5b90600052602060002090600502016040518060a00160405290816000820160009054906101000a900473ffffffffffffffffffffffffffffffffffffffff1673ffffffffffffffffffffffffffffffffffffffff1673ffffffffffffffffffffffffffffffffffffffff1681526020016001820160009054906101000a900473ffffffffffffffffffffffffffffffffffffffff1673ffffffffffffffffffffffffffffffffffffffff1673ffffffffffffffffffffffffffffffffffffffff16815260200160028201548152602001600382015481526020016004820160009054906101000a900460ff161515151581525050905060001515816080015115151415612f625760018160800190151590811515815250506000612e9e6064612e9084606001518560400151612f7790919063ffffffff16565b612fab90919063ffffffff16565b90508060086000846000015173ffffffffffffffffffffffffffffffffffffffff1673ffffffffffffffffffffffffffffffffffffffff168152602001908152602001600020600082825401925050819055507f868591bb2b953c2ab9230c3d982fc24b5b255e5d8d9bcd0c1a5e6ad5cddccab6826000015182604051808373ffffffffffffffffffffffffffffffffffffffff1673ffffffffffffffffffffffffffffffffffffffff1681526020018281526020019250505060405180910390a1505b508080600101915050612d12565b5050505050565b600080831415612f8a5760009050612fa5565b818302905081838281612f9957fe5b0414612fa157fe5b8090505b92915050565b6000818381612fb657fe5b04905092915050565b828054600181600116156101000203166002900490600052602060002090601f016020900481019282601f1061300057805160ff191683800117855561302e565b8280016001018555821561302e579182015b8281111561302d578251825591602001919060010190613012565b5b50905061303b91906130e9565b5090565b82805482825590600052602060002090810192821561307b579160200282015b8281111561307a57825182559160200191906001019061305f565b5b509050613088919061310e565b5090565b6040518060a00160405280600073ffffffffffffffffffffffffffffffffffffffff168152602001600073ffffffffffffffffffffffffffffffffffffffff16815260200160008152602001600081526020016000151581525090565b61310b91905b808211156131075760008160009055506001016130ef565b5090565b90565b61313091905b8082111561312c576000816000905550600101613114565b5090565b9056fe466c696768742068617320616c7265616479206265656e2072656769737465726564436f6e7472616374732063616e206f6e6c792070617920746f207468652070617373656e6765722e204e6f2066756e6420617661696c61626c6520666f72207769746864726177616c2e20436f6e74726163742069732063757272656e746c79206e6f74206f7065726174696f6e616c4f6e6c79206578697374696e6720616e642066756e646564206169726c696e65732061726520616c6c6f7765642864617461294169726c696e652068617320616c7265616479206265656e2072656769737465726564a265627a7a72305820c598bcb8ed59e4ee88c4c1deafe92b3e9764651a508a9993e7c4d9c94e92153164736f6c634300050a0032",
  "source": "pragma solidity >=0.4.24;\n\nimport \"../node_modules/openzeppelin-solidity/contracts/math/SafeMath.sol\";\n\ncontract FlightSuretyData {\n    using SafeMath for uint256;\n\n    /********************************************************************************************/\n    /*                                       DATA VARIABLES                                     */\n    /********************************************************************************************/\n\n    address private contractOwner;                                      // Account used to deploy contract\n    bool private operational = true;                                    // Blocks all state changes throughout the contract if false\n\n   struct Airline {\n        bool isRegistered;\n        bool isFunded;\n        string name;\n        bytes32[] flightKeys;\n    }\n\n    mapping(address => Airline) private airlines;\n    address[] registeredAirlines = new address[](0);\n    address[] fundedAirlines = new address[](0);\n\n   struct Flight {\n        bool isRegistered;\n        string name;\n        uint8 statusCode;\n        uint256 departure;\n        address airline;\n    }\n\n    mapping (address => bytes32[]) private flightsByAirlines;\n    mapping(bytes32 => Flight) private flights;\n    bytes32[] registeredFlights = new bytes32[](0);\n\n    // struct Votes{\n    //     uint votersCount;\n    //     mapping(address => bool) voters;\n    // }\n\n    struct Insurance {\n        address passenger;\n        address airline;\n        uint amount;\n        uint256 multiplier;\n        bool isCredited;\n    }\n\n    mapping (bytes32 => Insurance[]) insuredPassengersPerFlight; // Key is the flight key.\n    mapping (address => uint) public pendingPayments;\n\n    // Restrict data contract callers\n    mapping(address => uint256) private authorizedContracts;\n\n    // Flight status codees\n    uint8 private constant STATUS_CODE_UNKNOWN = 0;\n    uint8 private constant STATUS_CODE_ON_TIME = 10;\n    uint8 private constant STATUS_CODE_LATE_AIRLINE = 20;\n    uint8 private constant STATUS_CODE_LATE_WEATHER = 30;\n    uint8 private constant STATUS_CODE_LATE_TECHNICAL = 40;\n    uint8 private constant STATUS_CODE_LATE_OTHER = 50;\n\n    /********************************************************************************************/\n    /*                                       EVENT DEFINITIONS                                  */\n    /********************************************************************************************/\n    event AirlineRegistered(string airlineName, address airlineAddress);\n    event AirlineFunded(string airlineName, address airlineAddress);\n    event FlightRegistered(bytes32 flightKey, address airline, string name, uint256 timestamp);\n    event InsuranceBought(address airline, string flight, uint256 timestamp, address passenger, uint amount, uint256 multiplier);\n    event InsureeCredited(address passenger, uint amount);\n    event AccountWithdrawn(address passenger, uint amount);\n    event FlightStatusUpdated(address airline, string flight, uint256 timestamp, uint8 statusCode);\n\n    /**\n    * @dev Constructor\n    *      The deploying account becomes contractOwner\n    */\n    constructor(string memory firstAirlineName, address firstAirlineAddress) public {\n        contractOwner = msg.sender;\n        // Airline Contract Initialization: First airline is registered when contract is deployed\n        airlines[firstAirlineAddress] = Airline({\n         name: firstAirlineName,\n         isFunded: false,\n         isRegistered: true,\n         flightKeys: new bytes32[](0)\n        });\n        registeredAirlines.push(firstAirlineAddress);\n    }\n\n    /********************************************************************************************/\n    /*                                       FUNCTION MODIFIERS                                 */\n    /********************************************************************************************/\n\n    // Modifiers help avoid duplication of code. They are typically used to validate something\n    // before a function is allowed to be executed.\n\n    /**\n    * @dev Modifier that requires the \"operational\" boolean variable to be \"true\"\n    *      This is used on all state changing functions to pause the contract in\n    *      the event there is an issue that needs to be fixed\n    */\n    modifier requireIsOperational()\n    {\n        require(operational, \"Contract is currently not operational\");\n        _;  // All modifiers require an \"_\" which indicates where the function body will be added\n    }\n\n\n    modifier requireContractOwner()\n    {\n        require(msg.sender == contractOwner, \"Caller is not contract owner\");\n        _;\n    }\n\n\n    modifier requireIsCallerAuthorized() {\n     require(authorizedContracts[msg.sender] == 1, \"Caller is not authorized\");\n     _;\n    }\n\n\n    modifier requireAirlineIsFunded(address airline) {\n     require(airlines[airline].isFunded, \"Only existing and funded airlines are allowed(data)\");\n     _;\n    }\n    /********************************************************************************************/\n    /*                                       UTILITY FUNCTIONS                                  */\n    /********************************************************************************************/\n\n    /**\n    * @dev Get operating status of contract\n    *\n    * @return A bool that is the current operating status\n    */\n    function isOperational()\n                            public\n                            view\n                            returns(bool)\n    {\n        return operational;\n    }\n\n    function setOperatingStatus\n                            (\n                                bool mode\n                            )\n                            external\n                            requireContractOwner\n    {\n        operational = mode;\n    }\n\n    function getRegisteredAirlinesCount() external view returns(uint) {\n        return registeredAirlines.length;\n    }\n    \n    function getInsurancesCount(address airline, string calldata name, uint256 timestamp) external view returns(uint) {\n        bytes32 flightKey = getFlightKey(airline, name, timestamp);\n        return insuredPassengersPerFlight[flightKey].length;\n    }\n\n    function getAirlineName(address airline) external view returns(string memory) {\n        return airlines[airline].name;\n    }\n\n    function isAirline(address airline) external view returns(bool) {\n        return airlines[airline].isRegistered;\n    }\n\n    function isFundedAirline(address airline) external view returns(bool) {\n        return airlines[airline].isFunded;\n    }\n\n    function getRegisteredAirlines() external view returns(address[] memory) {\n        return registeredAirlines;\n    }\n\n    function authorizeCaller(address contractAddress) external requireContractOwner {\n        authorizedContracts[contractAddress] = 1;\n    }\n\n    function deauthorizeCaller(address contractAddress) external requireContractOwner {\n        delete authorizedContracts[contractAddress];\n    }\n\n    function isFlight(address airline, string calldata flight, uint256 timestamp) external view returns(bool) {\n        return flights[getFlightKey(airline, flight, timestamp)].isRegistered;\n    }\n\n    function isLandedFlight(address airline, string calldata flight, uint256 timestamp) external view returns(bool) {\n        return flights[getFlightKey(airline, flight, timestamp)].statusCode > STATUS_CODE_UNKNOWN;\n    }\n\n\n    function isInsured(address passenger, address airline, string calldata flight, uint256 timestamp) external view returns (bool) {\n        Insurance[] memory insuredPassengers = insuredPassengersPerFlight[getFlightKey(airline, flight, timestamp)];\n        for(uint i = 0; i < insuredPassengers.length; i++) {\n        if (insuredPassengers[i].passenger == passenger) {\n            return true;\n        }\n        }\n      return false;\n    }\n  \n    /********************************************************************************************/\n    /*                                     SMART CONTRACT FUNCTIONS                             */\n    /********************************************************************************************/\n\n   /**\n    * @dev Add an airline to the registration queue\n    *      Can only be called from FlightSuretyApp contract\n    *\n    */\n    function registerAirline(string memory airlineName, address airlineAddress) public\n    requireIsOperational requireIsCallerAuthorized\n    returns(bool success)\n    {\n        bool result = true;\n        require(airlines[airlineAddress].isRegistered == false, \"Airline has already been registered\");\n        airlines[airlineAddress] = Airline({\n          name: airlineName,\n          isFunded: false,\n          isRegistered: true,\n          flightKeys: new bytes32[](0)\n        });\n\n        registeredAirlines.push(airlineAddress);\n        emit AirlineRegistered(airlineName, airlineAddress);\n        return result;\n    }\n\n    function fundAirline(address addr) external requireIsOperational requireIsCallerAuthorized {\n      airlines[addr].isFunded = true;\n      emit AirlineFunded(airlines[addr].name, addr);\n    }\n\n    /**\n     * @dev Register a flight\n     */\n    function registerFlight(address airline, string calldata name, uint256 timestamp) external\n    requireIsOperational requireIsCallerAuthorized requireAirlineIsFunded(airline) {\n        bytes32 flightKey = getFlightKey(airline, name, timestamp);\n        require(!flights[flightKey].isRegistered, \"Flight has already been registered\");\n\n        flights[flightKey] = Flight({\n        isRegistered: true,\n        statusCode: 0,\n        departure: timestamp,\n        airline: airline,\n        name: name\n        });\n\n    registeredFlights.push(flightKey);\n    emit FlightRegistered(flightKey, airline, name, timestamp);\n   }\n\n   /**\n    * @dev Buy insurance for a flight\n    *\n    */\n    function buy\n                            (\n                                address airline, string calldata flight, uint256 timestamp,\n                                address passenger, uint256 amount, uint256 multiplier\n                            )\n                            external requireIsOperational requireIsCallerAuthorized\n                            payable\n    {\n    bytes32 flightKey = getFlightKey(airline, flight, timestamp);\n\n    insuredPassengersPerFlight[flightKey].push(Insurance({\n      airline: airline,\n      passenger: passenger,\n      amount: amount,\n      multiplier: multiplier,\n      isCredited: false\n    }));\n\n    emit InsuranceBought(airline, flight, timestamp, passenger, amount, multiplier);\n    }\n\n    /**\n     *  @dev Credits payouts to insurees\n    */\n    function creditInsurees(address airline, string memory flight, uint256 timestamp)\n    internal requireIsOperational requireIsCallerAuthorized\n    {\n            bytes32 flightKey = getFlightKey(airline, flight, timestamp);\n\n        for (uint i = 0; i < insuredPassengersPerFlight[flightKey].length; i++) {\n            Insurance memory insurance = insuredPassengersPerFlight[flightKey][i];\n            if (insurance.isCredited == false) {\n                insurance.isCredited = true;\n                uint256 amount = insurance.amount.mul(insurance.multiplier).div(100);\n                pendingPayments[insurance.passenger] += amount;\n\n                emit InsureeCredited(insurance.passenger, amount);\n            }\n        }\n    }\n\n    /**\n    * @dev Process flights\n    */\n    function processFlightStatus(address airline, string calldata flight, uint256 timestamp, uint8 statusCode)\n    external requireIsOperational requireIsCallerAuthorized {\n        //require(!this.isLandedFlight(airline, flight, timestamp), \"Flight already landed\");\n\n        bytes32 flightKey = getFlightKey(airline, flight, timestamp);\n\n        if (flights[flightKey].statusCode == STATUS_CODE_UNKNOWN) {\n        flights[flightKey].statusCode = statusCode;\n            if(statusCode == STATUS_CODE_LATE_AIRLINE) {\n                creditInsurees(airline, flight, timestamp);\n            }\n        }\n\n        emit FlightStatusUpdated(airline, flight, timestamp, statusCode);\n    }\n\n    /**\n     *  @dev Transfers eligible payout funds to insuree\n     *\n    */\n  function pay(address passenger) external requireIsOperational requireIsCallerAuthorized {\n    // Checks\n        require(passenger == msg.sender, \"Contracts can only pay to the passenger. \");\n        require(pendingPayments[passenger] > 0, \"No fund available for withdrawal. \");\n\n        uint256 amount = pendingPayments[passenger];\n        pendingPayments[passenger] = 0;\n\n        address(uint160(passenger)).transfer(amount);\n\n        emit AccountWithdrawn(passenger, amount);\n    }\n   /**\n    * @dev Initial funding for the insurance. Unless there are too many delayed flights\n    *      resulting in insurance payouts, the contract should be self-sustaining\n    *\n    */\n    function fund(address _sender) public payable\n    {\n        airlines[_sender].isFunded = true;\n    }\n\n    function getFlightKey(address airline, string memory flight, uint256 timestamp) internal pure returns(bytes32)\n    {\n        return keccak256(abi.encodePacked(airline, flight, timestamp));\n    }\n\n    /**\n    * @dev Fallback function for funding smart contract.\n    *\n    */\n    function() external payable\n    {\n       // fund();\n    }\n\n\n}",
  "sourcePath": "/Users/yifanxiao/Blockchain_nanodegree/Udacity_Blockchain_Dev/FlightSurety/contracts/FlightSuretyData.sol",
  "compiler": {
    "name": "solc",
    "version": "0.5.10+commit.5a6ea5b1.Emscripten.clang"
  },
  "schemaVersion": "3.0.1",
  "updatedAt": "2019-06-30T18:39:33.850Z",
  "devdoc": {
    "methods": {
      "buy(address,string,uint256,address,uint256,uint256)": {
        "details": "Buy insurance for a flight    "
      },
      "constructor": {
        "details": "Constructor     The deploying account becomes contractOwner"
      },
      "fund(address)": {
        "details": "Initial funding for the insurance. Unless there are too many delayed flights     resulting in insurance payouts, the contract should be self-sustaining    "
      },
      "isOperational()": {
        "details": "Get operating status of contract",
        "return": "A bool that is the current operating status"
      },
      "pay(address)": {
        "details": "Transfers eligible payout funds to insuree    "
      },
      "processFlightStatus(address,string,uint256,uint8)": {
        "details": "Process flights"
      },
      "registerAirline(string,address)": {
        "details": "Add an airline to the registration queue     Can only be called from FlightSuretyApp contract    "
      },
      "registerFlight(address,string,uint256)": {
        "details": "Register a flight"
      }
    }
  },
  "userdoc": {
    "methods": {}
  }
}