{
  "contractName": "FlightSuretyData",
  "abi": [
    {
      "constant": true,
      "inputs": [
        {
          "name": "",
          "type": "address"
        }
      ],
      "name": "pendingPayments",
      "outputs": [
        {
          "name": "",
          "type": "uint256"
        }
      ],
      "payable": false,
      "stateMutability": "view",
      "type": "function"
    },
    {
      "inputs": [
        {
          "name": "firstAirlineName",
          "type": "string"
        },
        {
          "name": "firstAirlineAddress",
          "type": "address"
        }
      ],
      "payable": false,
      "stateMutability": "nonpayable",
      "type": "constructor"
    },
    {
      "payable": true,
      "stateMutability": "payable",
      "type": "fallback"
    },
    {
      "anonymous": false,
      "inputs": [
        {
          "indexed": false,
          "name": "airlineName",
          "type": "string"
        },
        {
          "indexed": false,
          "name": "airlineAddress",
          "type": "address"
        }
      ],
      "name": "AirlineRegistered",
      "type": "event"
    },
    {
      "anonymous": false,
      "inputs": [
        {
          "indexed": false,
          "name": "airlineName",
          "type": "string"
        },
        {
          "indexed": false,
          "name": "airlineAddress",
          "type": "address"
        }
      ],
      "name": "AirlineFunded",
      "type": "event"
    },
    {
      "anonymous": false,
      "inputs": [
        {
          "indexed": false,
          "name": "flightKey",
          "type": "bytes32"
        },
        {
          "indexed": false,
          "name": "airline",
          "type": "address"
        },
        {
          "indexed": false,
          "name": "name",
          "type": "string"
        },
        {
          "indexed": false,
          "name": "timestamp",
          "type": "uint256"
        }
      ],
      "name": "FlightRegistered",
      "type": "event"
    },
    {
      "anonymous": false,
      "inputs": [
        {
          "indexed": false,
          "name": "airline",
          "type": "address"
        },
        {
          "indexed": false,
          "name": "flight",
          "type": "string"
        },
        {
          "indexed": false,
          "name": "timestamp",
          "type": "uint256"
        },
        {
          "indexed": false,
          "name": "passenger",
          "type": "address"
        },
        {
          "indexed": false,
          "name": "amount",
          "type": "uint256"
        },
        {
          "indexed": false,
          "name": "multiplier",
          "type": "uint256"
        }
      ],
      "name": "InsuranceBought",
      "type": "event"
    },
    {
      "anonymous": false,
      "inputs": [
        {
          "indexed": false,
          "name": "passenger",
          "type": "address"
        },
        {
          "indexed": false,
          "name": "amount",
          "type": "uint256"
        }
      ],
      "name": "InsureeCredited",
      "type": "event"
    },
    {
      "anonymous": false,
      "inputs": [
        {
          "indexed": false,
          "name": "passenger",
          "type": "address"
        },
        {
          "indexed": false,
          "name": "amount",
          "type": "uint256"
        }
      ],
      "name": "AccountWithdrawn",
      "type": "event"
    },
    {
      "anonymous": false,
      "inputs": [
        {
          "indexed": false,
          "name": "airline",
          "type": "address"
        },
        {
          "indexed": false,
          "name": "flight",
          "type": "string"
        },
        {
          "indexed": false,
          "name": "timestamp",
          "type": "uint256"
        },
        {
          "indexed": false,
          "name": "statusCode",
          "type": "uint8"
        }
      ],
      "name": "FlightStatusUpdated",
      "type": "event"
    },
    {
      "constant": true,
      "inputs": [],
      "name": "isOperational",
      "outputs": [
        {
          "name": "",
          "type": "bool"
        }
      ],
      "payable": false,
      "stateMutability": "view",
      "type": "function"
    },
    {
      "constant": false,
      "inputs": [
        {
          "name": "mode",
          "type": "bool"
        }
      ],
      "name": "setOperatingStatus",
      "outputs": [],
      "payable": false,
      "stateMutability": "nonpayable",
      "type": "function"
    },
    {
      "constant": true,
      "inputs": [],
      "name": "getRegisteredAirlinesCount",
      "outputs": [
        {
          "name": "",
          "type": "uint256"
        }
      ],
      "payable": false,
      "stateMutability": "view",
      "type": "function"
    },
    {
      "constant": false,
      "inputs": [
        {
          "name": "airlineName",
          "type": "string"
        },
        {
          "name": "airlineAddress",
          "type": "address"
        }
      ],
      "name": "registerAirline",
      "outputs": [
        {
          "name": "success",
          "type": "bool"
        }
      ],
      "payable": false,
      "stateMutability": "nonpayable",
      "type": "function"
    },
    {
      "constant": false,
      "inputs": [
        {
          "name": "addr",
          "type": "address"
        }
      ],
      "name": "fundAirline",
      "outputs": [],
      "payable": false,
      "stateMutability": "nonpayable",
      "type": "function"
    },
    {
      "constant": false,
      "inputs": [
        {
          "name": "airline",
          "type": "address"
        },
        {
          "name": "name",
          "type": "string"
        },
        {
          "name": "timestamp",
          "type": "uint256"
        }
      ],
      "name": "registerFlight",
      "outputs": [],
      "payable": false,
      "stateMutability": "nonpayable",
      "type": "function"
    },
    {
      "constant": false,
      "inputs": [
        {
          "name": "airline",
          "type": "address"
        },
        {
          "name": "flight",
          "type": "string"
        },
        {
          "name": "timestamp",
          "type": "uint256"
        },
        {
          "name": "passenger",
          "type": "address"
        },
        {
          "name": "amount",
          "type": "uint256"
        },
        {
          "name": "multiplier",
          "type": "uint256"
        }
      ],
      "name": "buy",
      "outputs": [],
      "payable": true,
      "stateMutability": "payable",
      "type": "function"
    },
    {
      "constant": false,
      "inputs": [
        {
          "name": "airline",
          "type": "address"
        },
        {
          "name": "flight",
          "type": "string"
        },
        {
          "name": "timestamp",
          "type": "uint256"
        },
        {
          "name": "statusCode",
          "type": "uint8"
        }
      ],
      "name": "processFlightStatus",
      "outputs": [],
      "payable": false,
      "stateMutability": "nonpayable",
      "type": "function"
    },
    {
      "constant": false,
      "inputs": [
        {
          "name": "passenger",
          "type": "address"
        }
      ],
      "name": "pay",
      "outputs": [],
      "payable": false,
      "stateMutability": "nonpayable",
      "type": "function"
    },
    {
      "constant": false,
      "inputs": [],
      "name": "fund",
      "outputs": [],
      "payable": true,
      "stateMutability": "payable",
      "type": "function"
    }
  ],
  "bytecode": "0x60806040526001600060146101000a81548160ff0219169083151502179055506000604051908082528060200260200182016040528015620000505781602001602082028038833980820191505090505b5060029080519060200190620000689291906200032e565b5060006040519080825280602002602001820160405280156200009a5781602001602082028038833980820191505090505b5060039080519060200190620000b29291906200032e565b506000604051908082528060200260200182016040528015620000e45781602001602082028038833980820191505090505b5060069080519060200190620000fc929190620003bd565b503480156200010a57600080fd5b5060405162002a3e38038062002a3e8339810180604052810190808051820192919060200180519060200190929190505050336000806101000a81548173ffffffffffffffffffffffffffffffffffffffff021916908373ffffffffffffffffffffffffffffffffffffffff16021790555060a0604051908101604052806001151581526020016000151581526020018381526020016000604051908082528060200260200182016040528015620001d15781602001602082028038833980820191505090505b5081526020016020604051908101604052806000815250815250600160008373ffffffffffffffffffffffffffffffffffffffff1673ffffffffffffffffffffffffffffffffffffffff16815260200190815260200160002060008201518160000160006101000a81548160ff02191690831515021790555060208201518160000160016101000a81548160ff02191690831515021790555060408201518160010190805190602001906200028892919062000415565b506060820151816002019080519060200190620002a79291906200049c565b5060808201518160030160008201518160000155505090505060028190806001815401808255809150509060018203906000526020600020016000909192909190916101000a81548173ffffffffffffffffffffffffffffffffffffffff021916908373ffffffffffffffffffffffffffffffffffffffff1602179055505050506200058a565b828054828255906000526020600020908101928215620003aa579160200282015b82811115620003a95782518260006101000a81548173ffffffffffffffffffffffffffffffffffffffff021916908373ffffffffffffffffffffffffffffffffffffffff160217905550916020019190600101906200034f565b5b509050620003b99190620004f4565b5090565b82805482825590600052602060002090810192821562000402579160200282015b8281111562000401578251829060001916905591602001919060010190620003de565b5b5090506200041191906200053a565b5090565b828054600181600116156101000203166002900490600052602060002090601f016020900481019282601f106200045857805160ff191683800117855562000489565b8280016001018555821562000489579182015b82811115620004885782518255916020019190600101906200046b565b5b50905062000498919062000562565b5090565b828054828255906000526020600020908101928215620004e1579160200282015b82811115620004e0578251829060001916905591602001919060010190620004bd565b5b509050620004f091906200053a565b5090565b6200053791905b808211156200053357600081816101000a81549073ffffffffffffffffffffffffffffffffffffffff021916905550600101620004fb565b5090565b90565b6200055f91905b808211156200055b57600081600090555060010162000541565b5090565b90565b6200058791905b808211156200058357600081600090555060010162000569565b5090565b90565b6124a4806200059a6000396000f3006080604052600436106100af576000357c0100000000000000000000000000000000000000000000000000000000900463ffffffff1680630c11dedd146100b95780630e2c4129146100fc578063110466ed1461019d5780633cc0be9c146101cc5780636fbb8798146102315780637f38e52614610274578063a22a1af5146102cb578063b60d428814610357578063cd905dff14610361578063e7bdde3b14610390578063f77890ea14610402575b6100b761042d565b005b3480156100c557600080fd5b506100fa600480360381019080803573ffffffffffffffffffffffffffffffffffffffff16906020019092919050505061042f565b005b34801561010857600080fd5b50610183600480360381019080803590602001908201803590602001908080601f0160208091040260200160405190810160405280939291908181526020018383808284378201915050505050509192919290803573ffffffffffffffffffffffffffffffffffffffff169060200190929190505050610874565b604051808215151515815260200191505060405180910390f35b3480156101a957600080fd5b506101ca600480360381019080803515159060200190929190505050610d46565b005b3480156101d857600080fd5b5061022f600480360381019080803573ffffffffffffffffffffffffffffffffffffffff16906020019092919080359060200190820180359060200191909192939192939080359060200190929190505050610e27565b005b34801561023d57600080fd5b50610272600480360381019080803573ffffffffffffffffffffffffffffffffffffffff169060200190929190505050611395565b005b34801561028057600080fd5b506102b5600480360381019080803573ffffffffffffffffffffffffffffffffffffffff169060200190929190505050611681565b6040518082815260200191505060405180910390f35b610355600480360381019080803573ffffffffffffffffffffffffffffffffffffffff16906020019092919080359060200190820180359060200191909192939192939080359060200190929190803573ffffffffffffffffffffffffffffffffffffffff1690602001909291908035906020019092919080359060200190929190505050611699565b005b61035f61042d565b005b34801561036d57600080fd5b50610376611a77565b604051808215151515815260200191505060405180910390f35b34801561039c57600080fd5b50610400600480360381019080803573ffffffffffffffffffffffffffffffffffffffff16906020019092919080359060200190820180359060200191909192939192939080359060200190929190803560ff169060200190929190505050611a8d565b005b34801561040e57600080fd5b50610417611d90565b6040518082815260200191505060405180910390f35b565b60008060149054906101000a900460ff1615156104da576040517f08c379a00000000000000000000000000000000000000000000000000000000081526004018080602001828103825260258152602001807f436f6e74726163742069732063757272656e746c79206e6f74206f706572617481526020017f696f6e616c00000000000000000000000000000000000000000000000000000081525060400191505060405180910390fd5b6001600960003373ffffffffffffffffffffffffffffffffffffffff1673ffffffffffffffffffffffffffffffffffffffff16815260200190815260200160002054141515610591576040517f08c379a00000000000000000000000000000000000000000000000000000000081526004018080602001828103825260188152602001807f43616c6c6572206973206e6f7420617574686f72697a6564000000000000000081525060200191505060405180910390fd5b3373ffffffffffffffffffffffffffffffffffffffff168273ffffffffffffffffffffffffffffffffffffffff1614151561065a576040517f08c379a00000000000000000000000000000000000000000000000000000000081526004018080602001828103825260298152602001807f436f6e7472616374732063616e206f6e6c792070617920746f2074686520706181526020017f7373656e6765722e20000000000000000000000000000000000000000000000081525060400191505060405180910390fd5b6000600860008473ffffffffffffffffffffffffffffffffffffffff1673ffffffffffffffffffffffffffffffffffffffff16815260200190815260200160002054111515610737576040517f08c379a00000000000000000000000000000000000000000000000000000000081526004018080602001828103825260228152602001807f4e6f2066756e6420617661696c61626c6520666f72207769746864726177616c81526020017f2e2000000000000000000000000000000000000000000000000000000000000081525060400191505060405180910390fd5b600860008373ffffffffffffffffffffffffffffffffffffffff1673ffffffffffffffffffffffffffffffffffffffff1681526020019081526020016000205490506000600860008473ffffffffffffffffffffffffffffffffffffffff1673ffffffffffffffffffffffffffffffffffffffff168152602001908152602001600020819055508173ffffffffffffffffffffffffffffffffffffffff166108fc829081150290604051600060405180830381858888f19350505050158015610804573d6000803e3d6000fd5b507fdfeacc538b4e5daa9b6f7bd5267be179488543805cd27e8022d2883a4dc847d78282604051808373ffffffffffffffffffffffffffffffffffffffff1673ffffffffffffffffffffffffffffffffffffffff1681526020018281526020019250505060405180910390a15050565b600080600060149054906101000a900460ff161515610921576040517f08c379a00000000000000000000000000000000000000000000000000000000081526004018080602001828103825260258152602001807f436f6e74726163742069732063757272656e746c79206e6f74206f706572617481526020017f696f6e616c00000000000000000000000000000000000000000000000000000081525060400191505060405180910390fd5b6001600960003373ffffffffffffffffffffffffffffffffffffffff1673ffffffffffffffffffffffffffffffffffffffff168152602001908152602001600020541415156109d8576040517f08c379a00000000000000000000000000000000000000000000000000000000081526004018080602001828103825260188152602001807f43616c6c6572206973206e6f7420617574686f72697a6564000000000000000081525060200191505060405180910390fd5b60019050600160008473ffffffffffffffffffffffffffffffffffffffff1673ffffffffffffffffffffffffffffffffffffffff16815260200190815260200160002060000160009054906101000a900460ff16151515610ac7576040517f08c379a00000000000000000000000000000000000000000000000000000000081526004018080602001828103825260238152602001807f4169726c696e652068617320616c7265616479206265656e207265676973746581526020017f726564000000000000000000000000000000000000000000000000000000000081525060400191505060405180910390fd5b60a0604051908101604052806001151581526020016000151581526020018581526020016000604051908082528060200260200182016040528015610b1b5781602001602082028038833980820191505090505b5081526020016020604051908101604052806000815250815250600160008573ffffffffffffffffffffffffffffffffffffffff1673ffffffffffffffffffffffffffffffffffffffff16815260200190815260200160002060008201518160000160006101000a81548160ff02191690831515021790555060208201518160000160016101000a81548160ff0219169083151502179055506040820151816001019080519060200190610bd09291906122fd565b506060820151816002019080519060200190610bed92919061237d565b5060808201518160030160008201518160000155505090505060028390806001815401808255809150509060018203906000526020600020016000909192909190916101000a81548173ffffffffffffffffffffffffffffffffffffffff021916908373ffffffffffffffffffffffffffffffffffffffff160217905550507f4389233d1d7e817e3a41447176300b89c596c24ed4d58896d501ddb378abe2c4848460405180806020018373ffffffffffffffffffffffffffffffffffffffff1673ffffffffffffffffffffffffffffffffffffffff168152602001828103825284818151815260200191508051906020019080838360005b83811015610d01578082015181840152602081019050610ce6565b50505050905090810190601f168015610d2e5780820380516001836020036101000a031916815260200191505b50935050505060405180910390a18091505092915050565b6000809054906101000a900473ffffffffffffffffffffffffffffffffffffffff1673ffffffffffffffffffffffffffffffffffffffff163373ffffffffffffffffffffffffffffffffffffffff16141515610e0a576040517f08c379a000000000000000000000000000000000000000000000000000000000815260040180806020018281038252601c8152602001807f43616c6c6572206973206e6f7420636f6e7472616374206f776e65720000000081525060200191505060405180910390fd5b80600060146101000a81548160ff02191690831515021790555050565b60008060149054906101000a900460ff161515610ed2576040517f08c379a00000000000000000000000000000000000000000000000000000000081526004018080602001828103825260258152602001807f436f6e74726163742069732063757272656e746c79206e6f74206f706572617481526020017f696f6e616c00000000000000000000000000000000000000000000000000000081525060400191505060405180910390fd5b6001600960003373ffffffffffffffffffffffffffffffffffffffff1673ffffffffffffffffffffffffffffffffffffffff16815260200190815260200160002054141515610f89576040517f08c379a00000000000000000000000000000000000000000000000000000000081526004018080602001828103825260188152602001807f43616c6c6572206973206e6f7420617574686f72697a6564000000000000000081525060200191505060405180910390fd5b84600160008273ffffffffffffffffffffffffffffffffffffffff1673ffffffffffffffffffffffffffffffffffffffff16815260200190815260200160002060000160019054906101000a900460ff161515611074576040517f08c379a000000000000000000000000000000000000000000000000000000000815260040180806020018281038252602d8152602001807f4f6e6c79206578697374696e6720616e642066756e646564206169726c696e6581526020017f732061726520616c6c6f7765640000000000000000000000000000000000000081525060400191505060405180910390fd5b6110b18686868080601f01602080910402602001604051908101604052809392919081815260200183838082843782019150505050505085611d9d565b915060056000836000191660001916815260200190815260200160002060000160009054906101000a900460ff1615151561117a576040517f08c379a00000000000000000000000000000000000000000000000000000000081526004018080602001828103825260228152602001807f466c696768742068617320616c7265616479206265656e20726567697374657281526020017f656400000000000000000000000000000000000000000000000000000000000081525060400191505060405180910390fd5b60a06040519081016040528060011515815260200186868080601f0160208091040260200160405190810160405280939291908181526020018383808284378201915050505050508152602001600060ff1681526020018481526020018773ffffffffffffffffffffffffffffffffffffffff1681525060056000846000191660001916815260200190815260200160002060008201518160000160006101000a81548160ff02191690831515021790555060208201518160010190805190602001906112489291906122fd565b5060408201518160020160006101000a81548160ff021916908360ff1602179055506060820151816003015560808201518160040160006101000a81548173ffffffffffffffffffffffffffffffffffffffff021916908373ffffffffffffffffffffffffffffffffffffffff16021790555090505060068290806001815401808255809150509060018203906000526020600020016000909192909190915090600019169055507f0d82c4651f01559b505cf25bdba0731c1e92d2cfc50a6932a64c096f79d892d682878787876040518086600019166000191681526020018573ffffffffffffffffffffffffffffffffffffffff1673ffffffffffffffffffffffffffffffffffffffff1681526020018060200183815260200182810382528585828181526020019250808284378201915050965050505050505060405180910390a1505050505050565b600060149054906101000a900460ff16151561143f576040517f08c379a00000000000000000000000000000000000000000000000000000000081526004018080602001828103825260258152602001807f436f6e74726163742069732063757272656e746c79206e6f74206f706572617481526020017f696f6e616c00000000000000000000000000000000000000000000000000000081525060400191505060405180910390fd5b6001600960003373ffffffffffffffffffffffffffffffffffffffff1673ffffffffffffffffffffffffffffffffffffffff168152602001908152602001600020541415156114f6576040517f08c379a00000000000000000000000000000000000000000000000000000000081526004018080602001828103825260188152602001807f43616c6c6572206973206e6f7420617574686f72697a6564000000000000000081525060200191505060405180910390fd5b60018060008373ffffffffffffffffffffffffffffffffffffffff1673ffffffffffffffffffffffffffffffffffffffff16815260200190815260200160002060000160016101000a81548160ff0219169083151502179055507fb79e695bf38dcea3887c0922d0f819d2c35e4197231fb49fc074b143a81feae2600160008373ffffffffffffffffffffffffffffffffffffffff1673ffffffffffffffffffffffffffffffffffffffff1681526020019081526020016000206001018260405180806020018373ffffffffffffffffffffffffffffffffffffffff1673ffffffffffffffffffffffffffffffffffffffff16815260200182810382528481815460018160011615610100020316600290048152602001915080546001816001161561010002031660029004801561166f5780601f106116445761010080835404028352916020019161166f565b820191906000526020600020905b81548152906001019060200180831161165257829003601f168201915b5050935050505060405180910390a150565b60086020528060005260406000206000915090505481565b60008060149054906101000a900460ff161515611744576040517f08c379a00000000000000000000000000000000000000000000000000000000081526004018080602001828103825260258152602001807f436f6e74726163742069732063757272656e746c79206e6f74206f706572617481526020017f696f6e616c00000000000000000000000000000000000000000000000000000081525060400191505060405180910390fd5b6001600960003373ffffffffffffffffffffffffffffffffffffffff1673ffffffffffffffffffffffffffffffffffffffff168152602001908152602001600020541415156117fb576040517f08c379a00000000000000000000000000000000000000000000000000000000081526004018080602001828103825260188152602001807f43616c6c6572206973206e6f7420617574686f72697a6564000000000000000081525060200191505060405180910390fd5b6118388888888080601f01602080910402602001604051908101604052809392919081815260200183838082843782019150505050505087611d9d565b905060076000826000191660001916815260200190815260200160002060a0604051908101604052808673ffffffffffffffffffffffffffffffffffffffff1681526020018a73ffffffffffffffffffffffffffffffffffffffff168152602001858152602001848152602001600015158152509080600181540180825580915050906001820390600052602060002090600502016000909192909190915060008201518160000160006101000a81548173ffffffffffffffffffffffffffffffffffffffff021916908373ffffffffffffffffffffffffffffffffffffffff16021790555060208201518160010160006101000a81548173ffffffffffffffffffffffffffffffffffffffff021916908373ffffffffffffffffffffffffffffffffffffffff160217905550604082015181600201556060820151816003015560808201518160040160006101000a81548160ff0219169083151502179055505050507fc1647762ee49a904197616f0bd3213b3b925a37d94f32d699214e1b76085821088888888888888604051808873ffffffffffffffffffffffffffffffffffffffff1673ffffffffffffffffffffffffffffffffffffffff168152602001806020018681526020018573ffffffffffffffffffffffffffffffffffffffff1673ffffffffffffffffffffffffffffffffffffffff168152602001848152602001838152602001828103825288888281815260200192508082843782019150509850505050505050505060405180910390a15050505050505050565b60008060149054906101000a900460ff16905090565b60008060149054906101000a900460ff161515611b38576040517f08c379a00000000000000000000000000000000000000000000000000000000081526004018080602001828103825260258152602001807f436f6e74726163742069732063757272656e746c79206e6f74206f706572617481526020017f696f6e616c00000000000000000000000000000000000000000000000000000081525060400191505060405180910390fd5b6001600960003373ffffffffffffffffffffffffffffffffffffffff1673ffffffffffffffffffffffffffffffffffffffff16815260200190815260200160002054141515611bef576040517f08c379a00000000000000000000000000000000000000000000000000000000081526004018080602001828103825260188152602001807f43616c6c6572206973206e6f7420617574686f72697a6564000000000000000081525060200191505060405180910390fd5b611c2c8686868080601f01602080910402602001604051908101604052809392919081815260200183838082843782019150505050505085611d9d565b9050600060ff1660056000836000191660001916815260200190815260200160002060020160009054906101000a900460ff1660ff161415611ced578160056000836000191660001916815260200190815260200160002060020160006101000a81548160ff021916908360ff160217905550601460ff168260ff161415611cec57611ceb8686868080601f01602080910402602001604051908101604052809392919081815260200183838082843782019150505050505085611ec2565b5b5b7f3f8930fd52e84bc32c0c2e5d060a9cfa59066160d5197e39f17d16ebbcaa7db68686868686604051808673ffffffffffffffffffffffffffffffffffffffff1673ffffffffffffffffffffffffffffffffffffffff168152602001806020018481526020018360ff1660ff16815260200182810382528686828181526020019250808284378201915050965050505050505060405180910390a1505050505050565b6000600280549050905090565b6000838383604051602001808473ffffffffffffffffffffffffffffffffffffffff1673ffffffffffffffffffffffffffffffffffffffff166c0100000000000000000000000002815260140183805190602001908083835b602083101515611e1b5780518252602082019150602081019050602083039250611df6565b6001836020036101000a03801982511681845116808217855250505050505090500182815260200193505050506040516020818303038152906040526040518082805190602001908083835b602083101515611e8c5780518252602082019150602081019050602083039250611e67565b6001836020036101000a038019825116818451168082178552505050505050905001915050604051809103902090509392505050565b600080611ecd6123d0565b60008060149054906101000a900460ff161515611f78576040517f08c379a00000000000000000000000000000000000000000000000000000000081526004018080602001828103825260258152602001807f436f6e74726163742069732063757272656e746c79206e6f74206f706572617481526020017f696f6e616c00000000000000000000000000000000000000000000000000000081525060400191505060405180910390fd5b6001600960003373ffffffffffffffffffffffffffffffffffffffff1673ffffffffffffffffffffffffffffffffffffffff1681526020019081526020016000205414151561202f576040517f08c379a00000000000000000000000000000000000000000000000000000000081526004018080602001828103825260188152602001807f43616c6c6572206973206e6f7420617574686f72697a6564000000000000000081525060200191505060405180910390fd5b61203a878787611d9d565b9350600092505b600760008560001916600019168152602001908152602001600020805490508310156122a6576007600085600019166000191681526020019081526020016000208381548110151561208f57fe5b906000526020600020906005020160a060405190810160405290816000820160009054906101000a900473ffffffffffffffffffffffffffffffffffffffff1673ffffffffffffffffffffffffffffffffffffffff1673ffffffffffffffffffffffffffffffffffffffff1681526020016001820160009054906101000a900473ffffffffffffffffffffffffffffffffffffffff1673ffffffffffffffffffffffffffffffffffffffff1673ffffffffffffffffffffffffffffffffffffffff16815260200160028201548152602001600382015481526020016004820160009054906101000a900460ff1615151515815250509150600015158260800151151514156122995760018260800190151590811515815250506121d660646121c8846060015185604001516122af90919063ffffffff16565b6122e790919063ffffffff16565b90508060086000846000015173ffffffffffffffffffffffffffffffffffffffff1673ffffffffffffffffffffffffffffffffffffffff168152602001908152602001600020600082825401925050819055507f868591bb2b953c2ab9230c3d982fc24b5b255e5d8d9bcd0c1a5e6ad5cddccab6826000015182604051808373ffffffffffffffffffffffffffffffffffffffff1673ffffffffffffffffffffffffffffffffffffffff1681526020018281526020019250505060405180910390a15b8280600101935050612041565b50505050505050565b6000808314156122c257600090506122e1565b81830290508183828115156122d357fe5b041415156122dd57fe5b8090505b92915050565b600081838115156122f457fe5b04905092915050565b828054600181600116156101000203166002900490600052602060002090601f016020900481019282601f1061233e57805160ff191683800117855561236c565b8280016001018555821561236c579182015b8281111561236b578251825591602001919060010190612350565b5b509050612379919061242e565b5090565b8280548282559060005260206000209081019282156123bf579160200282015b828111156123be57825182906000191690559160200191906001019061239d565b5b5090506123cc9190612453565b5090565b60a060405190810160405280600073ffffffffffffffffffffffffffffffffffffffff168152602001600073ffffffffffffffffffffffffffffffffffffffff16815260200160008152602001600081526020016000151581525090565b61245091905b8082111561244c576000816000905550600101612434565b5090565b90565b61247591905b80821115612471576000816000905550600101612459565b5090565b905600a165627a7a72305820370f7403b42d6306c8f159a8bb490f9257faca909312510392712e0522bbfac90029",
  "source": "pragma solidity >=0.4.25;\n\nimport \"../node_modules/openzeppelin-solidity/contracts/math/SafeMath.sol\";\n\ncontract FlightSuretyData {\n    using SafeMath for uint256;\n\n    /********************************************************************************************/\n    /*                                       DATA VARIABLES                                     */\n    /********************************************************************************************/\n\n    address private contractOwner;                                      // Account used to deploy contract\n    bool private operational = true;                                    // Blocks all state changes throughout the contract if false\n\n   struct Airline {\n        bool isRegistered;\n        bool isFunded;\n        string name;\n        bytes32[] flightKeys;\n        Votes votes;\n    }\n\n    mapping(address => Airline) private airlines;\n    address[] registeredAirlines = new address[](0);\n    address[] fundedAirlines = new address[](0);\n\n   struct Flight {\n        bool isRegistered;\n        string name;\n        uint8 statusCode;\n        uint256 departure;\n        address airline;\n    }\n\n    mapping (address => bytes32[]) private flightsByAirlines;\n    mapping(bytes32 => Flight) private flights;\n    bytes32[] registeredFlights = new bytes32[](0);\n\n    struct Votes{\n        uint votersCount;\n        mapping(address => bool) voters;\n    }\n\n    struct Insurance {\n        address passenger;\n        address airline;\n        uint amount;\n        uint256 multiplier;\n        bool isCredited;\n    }\n\n    mapping (bytes32 => Insurance[]) insuredPassengersPerFlight; // Key is the flight key.\n    mapping (address => uint) public pendingPayments;\n\n    // Restrict data contract callers\n    mapping(address => uint256) private authorizedContracts;\n\n    // Flight status codees\n    uint8 private constant STATUS_CODE_UNKNOWN = 0;\n    uint8 private constant STATUS_CODE_ON_TIME = 10;\n    uint8 private constant STATUS_CODE_LATE_AIRLINE = 20;\n    uint8 private constant STATUS_CODE_LATE_WEATHER = 30;\n    uint8 private constant STATUS_CODE_LATE_TECHNICAL = 40;\n    uint8 private constant STATUS_CODE_LATE_OTHER = 50;\n\n    /********************************************************************************************/\n    /*                                       EVENT DEFINITIONS                                  */\n    /********************************************************************************************/\n    event AirlineRegistered(string airlineName, address airlineAddress);\n    event AirlineFunded(string airlineName, address airlineAddress);\n    event FlightRegistered(bytes32 flightKey, address airline, string name, uint256 timestamp);\n    event InsuranceBought(address airline, string flight, uint256 timestamp, address passenger, uint amount, uint256 multiplier);\n    event InsureeCredited(address passenger, uint amount);\n    event AccountWithdrawn(address passenger, uint amount);\n    event FlightStatusUpdated(address airline, string flight, uint256 timestamp, uint8 statusCode);\n\n    /**\n    * @dev Constructor\n    *      The deploying account becomes contractOwner\n    */\n    constructor(string memory firstAirlineName, address firstAirlineAddress) public {\n    contractOwner = msg.sender;\n\n    // Airline Contract Initialization: First airline is registered when contract is deployed\n    airlines[firstAirlineAddress] = Airline({\n      name: firstAirlineName,\n      isFunded: false,\n      isRegistered: true,\n      flightKeys: new bytes32[](0),\n      votes: Votes(0)\n    });\n\n    registeredAirlines.push(firstAirlineAddress);\n  }\n\n    /********************************************************************************************/\n    /*                                       FUNCTION MODIFIERS                                 */\n    /********************************************************************************************/\n\n    // Modifiers help avoid duplication of code. They are typically used to validate something\n    // before a function is allowed to be executed.\n\n    /**\n    * @dev Modifier that requires the \"operational\" boolean variable to be \"true\"\n    *      This is used on all state changing functions to pause the contract in\n    *      the event there is an issue that needs to be fixed\n    */\n    modifier requireIsOperational()\n    {\n        require(operational, \"Contract is currently not operational\");\n        _;  // All modifiers require an \"_\" which indicates where the function body will be added\n    }\n\n    /**\n    * @dev Modifier that requires the \"ContractOwner\" account to be the function caller\n    */\n    modifier requireContractOwner()\n    {\n        require(msg.sender == contractOwner, \"Caller is not contract owner\");\n        _;\n    }\n\n    /**\n    * @dev Modifier that requires function caller to be authorized\n    */\n    modifier requireIsCallerAuthorized() {\n     require(authorizedContracts[msg.sender] == 1, \"Caller is not authorized\");\n     _;\n    }\n\n    /**\n    * @dev Modifier that requires airline to be funded\n    */\n    modifier requireAirlineIsFunded(address airline) {\n     require(airlines[airline].isFunded, \"Only existing and funded airlines are allowed\");\n     _;\n    }\n    /********************************************************************************************/\n    /*                                       UTILITY FUNCTIONS                                  */\n    /********************************************************************************************/\n\n    /**\n    * @dev Get operating status of contract\n    *\n    * @return A bool that is the current operating status\n    */\n    function isOperational()\n                            public\n                            view\n                            returns(bool)\n    {\n        return operational;\n    }\n\n\n    /**\n    * @dev Sets contract operations on/off\n    *\n    * When operational mode is disabled, all write transactions except for this one will fail\n    */\n    function setOperatingStatus\n                            (\n                                bool mode\n                            )\n                            external\n                            requireContractOwner\n    {\n        operational = mode;\n    }\n\n    function getRegisteredAirlinesCount() external view returns(uint) {\n        return registeredAirlines.length;\n    }\n    /********************************************************************************************/\n    /*                                     SMART CONTRACT FUNCTIONS                             */\n    /********************************************************************************************/\n\n   /**\n    * @dev Add an airline to the registration queue\n    *      Can only be called from FlightSuretyApp contract\n    *\n    */\n    function registerAirline(string memory airlineName, address airlineAddress)\n    public requireIsOperational requireIsCallerAuthorized returns(bool success)\n    {\n        bool result = true;\n        require(!airlines[airlineAddress].isRegistered, \"Airline has already been registered\");\n        airlines[airlineAddress] = Airline({\n          name: airlineName,\n          isFunded: false,\n          isRegistered: true,\n          flightKeys: new bytes32[](0),\n          votes: Votes(0)\n        });\n\n        registeredAirlines.push(airlineAddress);\n        emit AirlineRegistered(airlineName, airlineAddress);\n        return result;\n    }\n\n    function fundAirline(address addr) external requireIsOperational requireIsCallerAuthorized {\n      airlines[addr].isFunded = true;\n      emit AirlineFunded(airlines[addr].name, addr);\n    }\n\n    /**\n     * @dev Register a flight\n     */\n    function registerFlight(address airline, string name, uint256 timestamp) external\n    requireIsOperational requireIsCallerAuthorized requireAirlineIsFunded(airline) {\n     bytes32 flightKey = getFlightKey(airline, name, timestamp);\n     require(!flights[flightKey].isRegistered, \"Flight has already been registered\");\n\n    flights[flightKey] = Flight({\n      isRegistered: true,\n      statusCode: 0,\n      departure: timestamp,\n      airline: airline,\n      name: name\n    });\n\n    registeredFlights.push(flightKey);\n\n    emit FlightRegistered(flightKey, airline, name, timestamp);\n   }\n\n   /**\n    * @dev Buy insurance for a flight\n    *\n    */\n    function buy\n                            (\n                                address airline, string flight, uint256 timestamp,\n                                address passenger, uint256 amount, uint256 multiplier\n                            )\n                            external requireIsOperational requireIsCallerAuthorized\n                            payable\n    {\n    bytes32 flightKey = getFlightKey(airline, flight, timestamp);\n\n    insuredPassengersPerFlight[flightKey].push(Insurance({\n      airline: airline,\n      passenger: passenger,\n      amount: amount,\n      multiplier: multiplier,\n      isCredited: false\n    }));\n\n    emit InsuranceBought(airline, flight, timestamp, passenger, amount, multiplier);\n    }\n\n    /**\n     *  @dev Credits payouts to insurees\n    */\n    function creditInsurees(address airline, string memory flight, uint256 timestamp)\n    internal requireIsOperational requireIsCallerAuthorized\n    {\n            bytes32 flightKey = getFlightKey(airline, flight, timestamp);\n\n        for (uint i = 0; i < insuredPassengersPerFlight[flightKey].length; i++) {\n            Insurance memory insurance = insuredPassengersPerFlight[flightKey][i];\n            if (insurance.isCredited == false) {\n                insurance.isCredited = true;\n                uint256 amount = insurance.amount.mul(insurance.multiplier).div(100);\n                pendingPayments[insurance.passenger] += amount;\n\n                emit InsureeCredited(insurance.passenger, amount);\n            }\n        }\n    }\n\n    /**\n    * @dev Process flights\n    */\n    function processFlightStatus(address airline, string flight, uint256 timestamp, uint8 statusCode)\n    external requireIsOperational requireIsCallerAuthorized {\n        //require(!this.isLandedFlight(airline, flight, timestamp), \"Flight already landed\");\n\n        bytes32 flightKey = getFlightKey(airline, flight, timestamp);\n\n        if (flights[flightKey].statusCode == STATUS_CODE_UNKNOWN) {\n        flights[flightKey].statusCode = statusCode;\n            if(statusCode == STATUS_CODE_LATE_AIRLINE) {\n                creditInsurees(airline, flight, timestamp);\n            }\n        }\n\n        emit FlightStatusUpdated(airline, flight, timestamp, statusCode);\n    }\n\n    /**\n     *  @dev Transfers eligible payout funds to insuree\n     *\n    */\n  function pay(address passenger) external requireIsOperational requireIsCallerAuthorized {\n    // Checks\n    require(passenger == msg.sender, \"Contracts can only pay to the passenger. \");\n    require(pendingPayments[passenger] > 0, \"No fund available for withdrawal. \");\n\n    uint256 amount = pendingPayments[passenger];\n    pendingPayments[passenger] = 0;\n\n    address(uint160(passenger)).transfer(amount);\n\n    emit AccountWithdrawn(passenger, amount);\n  }\n   /**\n    * @dev Initial funding for the insurance. Unless there are too many delayed flights\n    *      resulting in insurance payouts, the contract should be self-sustaining\n    *\n    */\n    function fund() public payable\n    {\n    }\n\n    function getFlightKey(address airline, string memory flight, uint256 timestamp) internal pure returns(bytes32)\n    {\n        return keccak256(abi.encodePacked(airline, flight, timestamp));\n    }\n\n    /**\n    * @dev Fallback function for funding smart contract.\n    *\n    */\n    function() external payable\n    {\n        fund();\n    }\n\n\n}\n\n",
  "sourcePath": "/Users/yifanxiao/Blockchain_nanodegree/Udacity_Blockchain_Dev/FlightSurety/contracts/FlightSuretyData.sol",
  "compiler": {
    "name": "solc",
    "version": "0.4.26+commit.4563c3fc.Emscripten.clang"
  },
  "schemaVersion": "3.0.1",
  "updatedAt": "2019-06-23T08:35:35.431Z",
  "devdoc": {
    "methods": {
      "buy(address,string,uint256,address,uint256,uint256)": {
        "details": "Buy insurance for a flight    "
      },
      "fund()": {
        "details": "Initial funding for the insurance. Unless there are too many delayed flights     resulting in insurance payouts, the contract should be self-sustaining    "
      },
      "isOperational()": {
        "details": "Get operating status of contract",
        "return": "A bool that is the current operating status"
      },
      "pay(address)": {
        "details": "Transfers eligible payout funds to insuree    "
      },
      "processFlightStatus(address,string,uint256,uint8)": {
        "details": "Process flights"
      },
      "registerAirline(string,address)": {
        "details": "Add an airline to the registration queue     Can only be called from FlightSuretyApp contract    "
      },
      "registerFlight(address,string,uint256)": {
        "details": "Register a flight"
      },
      "setOperatingStatus(bool)": {
        "details": "Sets contract operations on/off    * When operational mode is disabled, all write transactions except for this one will fail"
      }
    }
  },
  "userdoc": {
    "methods": {}
  }
}