{
  "contractName": "FlightSuretyApp",
  "abi": [
    {
      "constant": true,
      "inputs": [],
      "name": "REGISTRATION_FEE",
      "outputs": [
        {
          "name": "",
          "type": "uint256"
        }
      ],
      "payable": false,
      "stateMutability": "view",
      "type": "function",
      "signature": "0x64b4f751"
    },
    {
      "inputs": [
        {
          "name": "dataContractAddress",
          "type": "address"
        }
      ],
      "payable": false,
      "stateMutability": "nonpayable",
      "type": "constructor",
      "signature": "constructor"
    },
    {
      "anonymous": false,
      "inputs": [
        {
          "indexed": false,
          "name": "name",
          "type": "string"
        },
        {
          "indexed": false,
          "name": "addr",
          "type": "address"
        },
        {
          "indexed": false,
          "name": "result",
          "type": "bool"
        },
        {
          "indexed": false,
          "name": "votes",
          "type": "uint256"
        }
      ],
      "name": "AirlineRegistered",
      "type": "event",
      "signature": "0x5830152b09b4f01c34ead661365969a1f6683c57b8d4039a6ec2f3ca64c4274c"
    },
    {
      "anonymous": false,
      "inputs": [
        {
          "indexed": false,
          "name": "airline",
          "type": "address"
        },
        {
          "indexed": false,
          "name": "amount",
          "type": "uint256"
        }
      ],
      "name": "AirlineFunded",
      "type": "event",
      "signature": "0xe3e3c2f23f7445131259937f93b9ed0c075fe06c9d702be2d7ac549d0ec5fc32"
    },
    {
      "anonymous": false,
      "inputs": [
        {
          "indexed": false,
          "name": "airline",
          "type": "address"
        },
        {
          "indexed": false,
          "name": "flightName",
          "type": "string"
        },
        {
          "indexed": false,
          "name": "departureTime",
          "type": "uint256"
        }
      ],
      "name": "FlightRegistered",
      "type": "event",
      "signature": "0x34151dfe5f5d2e1a6ed2a8b951d1f9935b00b4711e31a6c7972eaee3b81c1f02"
    },
    {
      "anonymous": false,
      "inputs": [
        {
          "indexed": false,
          "name": "airline",
          "type": "address"
        },
        {
          "indexed": false,
          "name": "flight",
          "type": "string"
        },
        {
          "indexed": false,
          "name": "timestamp",
          "type": "uint256"
        },
        {
          "indexed": false,
          "name": "passenger",
          "type": "address"
        },
        {
          "indexed": false,
          "name": "amount",
          "type": "uint256"
        },
        {
          "indexed": false,
          "name": "multiplier",
          "type": "uint256"
        }
      ],
      "name": "InsuranceBought",
      "type": "event",
      "signature": "0xc1647762ee49a904197616f0bd3213b3b925a37d94f32d699214e1b760858210"
    },
    {
      "anonymous": false,
      "inputs": [
        {
          "indexed": false,
          "name": "airline",
          "type": "address"
        },
        {
          "indexed": false,
          "name": "flight",
          "type": "string"
        },
        {
          "indexed": false,
          "name": "timestamp",
          "type": "uint256"
        },
        {
          "indexed": false,
          "name": "status",
          "type": "uint8"
        }
      ],
      "name": "FlightStatusInfo",
      "type": "event",
      "signature": "0xe23f5229de535c091e3b7bec2665f5d698192d3b31393066e8987b7a05076b6c"
    },
    {
      "anonymous": false,
      "inputs": [
        {
          "indexed": false,
          "name": "airline",
          "type": "address"
        },
        {
          "indexed": false,
          "name": "flight",
          "type": "string"
        },
        {
          "indexed": false,
          "name": "timestamp",
          "type": "uint256"
        },
        {
          "indexed": false,
          "name": "status",
          "type": "uint8"
        }
      ],
      "name": "OracleReport",
      "type": "event",
      "signature": "0x43c853095c2752648493c88b4baac4d580d2594ffb00c6f1d4242d844514f783"
    },
    {
      "anonymous": false,
      "inputs": [
        {
          "indexed": false,
          "name": "index",
          "type": "uint8"
        },
        {
          "indexed": false,
          "name": "airline",
          "type": "address"
        },
        {
          "indexed": false,
          "name": "flight",
          "type": "string"
        },
        {
          "indexed": false,
          "name": "timestamp",
          "type": "uint256"
        }
      ],
      "name": "OracleRequest",
      "type": "event",
      "signature": "0x3ed01f2c3fc24c6b329d931e35b03e390d23497d22b3f90e15b600343e93df11"
    },
    {
      "anonymous": false,
      "inputs": [
        {
          "indexed": false,
          "name": "getRegisteredAirlinesCount",
          "type": "uint256"
        }
      ],
      "name": "RegisteredCount",
      "type": "event",
      "signature": "0xd4fab9ce25202678175e6a034b396bf0334e4f05e6d1190175df2ce51cf0581e"
    },
    {
      "constant": true,
      "inputs": [],
      "name": "isOperational",
      "outputs": [
        {
          "name": "",
          "type": "bool"
        }
      ],
      "payable": false,
      "stateMutability": "view",
      "type": "function",
      "signature": "0xcd905dff"
    },
    {
      "constant": false,
      "inputs": [
        {
          "name": "mode",
          "type": "bool"
        }
      ],
      "name": "setOperatingStatus",
      "outputs": [],
      "payable": false,
      "stateMutability": "nonpayable",
      "type": "function",
      "signature": "0x110466ed"
    },
    {
      "constant": true,
      "inputs": [],
      "name": "getRegisteredAirlines",
      "outputs": [
        {
          "name": "",
          "type": "address[]"
        }
      ],
      "payable": false,
      "stateMutability": "view",
      "type": "function",
      "signature": "0xc23bcf09"
    },
    {
      "constant": false,
      "inputs": [
        {
          "name": "name",
          "type": "string"
        },
        {
          "name": "addr",
          "type": "address"
        }
      ],
      "name": "registerAirline",
      "outputs": [
        {
          "name": "success",
          "type": "bool"
        },
        {
          "name": "votes",
          "type": "uint256"
        }
      ],
      "payable": false,
      "stateMutability": "nonpayable",
      "type": "function",
      "signature": "0x0e2c4129"
    },
    {
      "constant": false,
      "inputs": [],
      "name": "fundAirline",
      "outputs": [],
      "payable": true,
      "stateMutability": "payable",
      "type": "function",
      "signature": "0x9ed18927"
    },
    {
      "constant": false,
      "inputs": [
        {
          "name": "flightName",
          "type": "string"
        },
        {
          "name": "departureTime",
          "type": "uint256"
        }
      ],
      "name": "registerFlight",
      "outputs": [],
      "payable": false,
      "stateMutability": "nonpayable",
      "type": "function",
      "signature": "0x39cfc995"
    },
    {
      "constant": false,
      "inputs": [
        {
          "name": "airline",
          "type": "address"
        },
        {
          "name": "flight",
          "type": "string"
        },
        {
          "name": "timestamp",
          "type": "uint256"
        }
      ],
      "name": "fetchFlightStatus",
      "outputs": [],
      "payable": false,
      "stateMutability": "nonpayable",
      "type": "function",
      "signature": "0xf83f11c0"
    },
    {
      "constant": false,
      "inputs": [
        {
          "name": "airline",
          "type": "address"
        },
        {
          "name": "flight",
          "type": "string"
        },
        {
          "name": "timestamp",
          "type": "uint256"
        }
      ],
      "name": "buyInsurance",
      "outputs": [],
      "payable": true,
      "stateMutability": "payable",
      "type": "function",
      "signature": "0x2f6721d0"
    },
    {
      "constant": false,
      "inputs": [],
      "name": "pay",
      "outputs": [],
      "payable": false,
      "stateMutability": "nonpayable",
      "type": "function",
      "signature": "0x1b9265b8"
    },
    {
      "constant": false,
      "inputs": [],
      "name": "registerOracle",
      "outputs": [],
      "payable": true,
      "stateMutability": "payable",
      "type": "function",
      "signature": "0x339d2590"
    },
    {
      "constant": true,
      "inputs": [],
      "name": "getMyIndexes",
      "outputs": [
        {
          "name": "",
          "type": "uint8[3]"
        }
      ],
      "payable": false,
      "stateMutability": "view",
      "type": "function",
      "signature": "0x5f1cc0e6"
    },
    {
      "constant": false,
      "inputs": [
        {
          "name": "index",
          "type": "uint8"
        },
        {
          "name": "airline",
          "type": "address"
        },
        {
          "name": "flight",
          "type": "string"
        },
        {
          "name": "timestamp",
          "type": "uint256"
        },
        {
          "name": "statusCode",
          "type": "uint8"
        }
      ],
      "name": "submitOracleResponse",
      "outputs": [],
      "payable": false,
      "stateMutability": "nonpayable",
      "type": "function",
      "signature": "0xc10f2700"
    }
  ],
  "bytecode": "0x60806040526001600060146101000a81548160ff0219169083151502179055506000600260146101000a81548160ff021916908360ff16021790555034801561004757600080fd5b5060405160208061381983398101806040528101908080519060200190929190505050336000806101000a81548173ffffffffffffffffffffffffffffffffffffffff021916908373ffffffffffffffffffffffffffffffffffffffff16021790555080600260006101000a81548173ffffffffffffffffffffffffffffffffffffffff021916908373ffffffffffffffffffffffffffffffffffffffff1602179055505061371e806100fb6000396000f3006080604052600436106100c5576000357c0100000000000000000000000000000000000000000000000000000000900463ffffffff1680630e2c4129146100ca578063110466ed146101725780631b9265b8146101a15780632f6721d0146101b8578063339d25901461021057806339cfc9951461021a5780635f1cc0e61461025f57806364b4f751146102b25780639ed18927146102dd578063c10f2700146102e7578063c23bcf0914610366578063cd905dff146103d2578063f83f11c014610401575b600080fd5b3480156100d657600080fd5b50610151600480360381019080803590602001908201803590602001908080601f0160208091040260200160405190810160405280939291908181526020018383808284378201915050505050509192919290803573ffffffffffffffffffffffffffffffffffffffff169060200190929190505050610466565b60405180831515151581526020018281526020019250505060405180910390f35b34801561017e57600080fd5b5061019f600480360381019080803515159060200190929190505050610ed9565b005b3480156101ad57600080fd5b506101b661106b565b005b61020e600480360381019080803573ffffffffffffffffffffffffffffffffffffffff169060200190929190803590602001908201803590602001919091929391929390803590602001909291905050506111ec565b005b610218611aeb565b005b34801561022657600080fd5b5061025d60048036038101908080359060200190820180359060200191909192939192939080359060200190929190505050611cbd565b005b34801561026b57600080fd5b5061027461208c565b6040518082600360200280838360005b8381101561029f578082015181840152602081019050610284565b5050505090500191505060405180910390f35b3480156102be57600080fd5b506102c76122ab565b6040518082815260200191505060405180910390f35b6102e56122b7565b005b3480156102f357600080fd5b50610364600480360381019080803560ff169060200190929190803573ffffffffffffffffffffffffffffffffffffffff16906020019092919080359060200190820180359060200191909192939192939080359060200190929190803560ff1690602001909291905050506125b2565b005b34801561037257600080fd5b5061037b612c74565b6040518080602001828103825283818151815260200191508051906020019060200280838360005b838110156103be5780820151818401526020810190506103a3565b505050509050019250505060405180910390f35b3480156103de57600080fd5b506103e7612d92565b604051808215151515815260200191505060405180910390f35b34801561040d57600080fd5b50610464600480360381019080803573ffffffffffffffffffffffffffffffffffffffff16906020019092919080359060200190820180359060200191909192939192939080359060200190929190505050612da8565b005b600080600080600080600060149054906101000a900460ff161515610519576040517f08c379a00000000000000000000000000000000000000000000000000000000081526004018080602001828103825260258152602001807f436f6e74726163742069732063757272656e746c79206e6f74206f706572617481526020017f696f6e616c00000000000000000000000000000000000000000000000000000081525060400191505060405180910390fd5b33600260009054906101000a900473ffffffffffffffffffffffffffffffffffffffff1673ffffffffffffffffffffffffffffffffffffffff1663f3ba4e1b826040518263ffffffff167c0100000000000000000000000000000000000000000000000000000000028152600401808273ffffffffffffffffffffffffffffffffffffffff1673ffffffffffffffffffffffffffffffffffffffff168152602001915050602060405180830381600087803b1580156105d757600080fd5b505af11580156105eb573d6000803e3d6000fd5b505050506040513d602081101561060157600080fd5b810190808051906020019092919050505015156106ac576040517f08c379a00000000000000000000000000000000000000000000000000000000081526004018080602001828103825260328152602001807f4f6e6c79206578697374696e6720616e642066756e646564206169726c696e6581526020017f732061726520616c6c6f7765642841707029000000000000000000000000000081525060400191505060405180910390fd5b60009450600260009054906101000a900473ffffffffffffffffffffffffffffffffffffffff1673ffffffffffffffffffffffffffffffffffffffff1663f77890ea6040518163ffffffff167c0100000000000000000000000000000000000000000000000000000000028152600401602060405180830381600087803b15801561073657600080fd5b505af115801561074a573d6000803e3d6000fd5b505050506040513d602081101561076057600080fd5b8101908080519060200190929190505050935060048410156108e857600260009054906101000a900473ffffffffffffffffffffffffffffffffffffffff1673ffffffffffffffffffffffffffffffffffffffff16630e2c41298a8a6040518363ffffffff167c010000000000000000000000000000000000000000000000000000000002815260040180806020018373ffffffffffffffffffffffffffffffffffffffff1673ffffffffffffffffffffffffffffffffffffffff168152602001828103825284818151815260200191508051906020019080838360005b8381101561085957808201518184015260208101905061083e565b50505050905090810190601f1680156108865780820380516001836020036101000a031916815260200191505b509350505050602060405180830381600087803b1580156108a657600080fd5b505af11580156108ba573d6000803e3d6000fd5b505050506040513d60208110156108d057600080fd5b81019080805190602001909291905050509450610d5f565b60009250600091505b600160008973ffffffffffffffffffffffffffffffffffffffff1673ffffffffffffffffffffffffffffffffffffffff168152602001908152602001600020805490508210156109fb573373ffffffffffffffffffffffffffffffffffffffff16600160008a73ffffffffffffffffffffffffffffffffffffffff1673ffffffffffffffffffffffffffffffffffffffff1681526020019081526020016000208381548110151561099e57fe5b9060005260206000200160009054906101000a900473ffffffffffffffffffffffffffffffffffffffff1673ffffffffffffffffffffffffffffffffffffffff1614156109ee57600192506109fb565b81806001019250506108f1565b82151515610a71576040517f08c379a000000000000000000000000000000000000000000000000000000000815260040180806020018281038252601e8152602001807f43616c6c65722068617320616c726561647920726567697374657265642e000081525060200191505060405180910390fd5b600160008973ffffffffffffffffffffffffffffffffffffffff1673ffffffffffffffffffffffffffffffffffffffff1681526020019081526020016000203390806001815401808255809150509060018203906000526020600020016000909192909190916101000a81548173ffffffffffffffffffffffffffffffffffffffff021916908373ffffffffffffffffffffffffffffffffffffffff16021790555050610b2860028561301290919063ffffffff16565b600160008a73ffffffffffffffffffffffffffffffffffffffff1673ffffffffffffffffffffffffffffffffffffffff16815260200190815260200160002080549050101515610d5e57600260009054906101000a900473ffffffffffffffffffffffffffffffffffffffff1673ffffffffffffffffffffffffffffffffffffffff16630e2c41298a8a6040518363ffffffff167c010000000000000000000000000000000000000000000000000000000002815260040180806020018373ffffffffffffffffffffffffffffffffffffffff1673ffffffffffffffffffffffffffffffffffffffff168152602001828103825284818151815260200191508051906020019080838360005b83811015610c4f578082015181840152602081019050610c34565b50505050905090810190601f168015610c7c5780820380516001836020036101000a031916815260200191505b509350505050602060405180830381600087803b158015610c9c57600080fd5b505af1158015610cb0573d6000803e3d6000fd5b505050506040513d6020811015610cc657600080fd5b810190808051906020019092919050505094506000604051908082528060200260200182016040528015610d095781602001602082028038833980820191505090505b50600160008a73ffffffffffffffffffffffffffffffffffffffff1673ffffffffffffffffffffffffffffffffffffffff1681526020019081526020016000209080519060200190610d5c929190613538565b505b5b7f5830152b09b4f01c34ead661365969a1f6683c57b8d4039a6ec2f3ca64c4274c898987600160008d73ffffffffffffffffffffffffffffffffffffffff1673ffffffffffffffffffffffffffffffffffffffff1681526020019081526020016000208054905060405180806020018573ffffffffffffffffffffffffffffffffffffffff1673ffffffffffffffffffffffffffffffffffffffff16815260200184151515158152602001838152602001828103825286818151815260200191508051906020019080838360005b83811015610e48578082015181840152602081019050610e2d565b50505050905090810190601f168015610e755780820380516001836020036101000a031916815260200191505b509550505050505060405180910390a184600160008a73ffffffffffffffffffffffffffffffffffffffff1673ffffffffffffffffffffffffffffffffffffffff168152602001908152602001600020805490509650965050505050509250929050565b6000809054906101000a900473ffffffffffffffffffffffffffffffffffffffff1673ffffffffffffffffffffffffffffffffffffffff163373ffffffffffffffffffffffffffffffffffffffff16141515610f9d576040517f08c379a000000000000000000000000000000000000000000000000000000000815260040180806020018281038252601c8152602001807f43616c6c6572206973206e6f7420636f6e7472616374206f776e65720000000081525060200191505060405180910390fd5b600060149054906101000a900460ff1615158115151415151561104e576040517f08c379a000000000000000000000000000000000000000000000000000000000815260040180806020018281038252602d8152602001807f4e6577206d6f6465206d75737420626520646966666572656e742066726f6d2081526020017f6578697374696e67206d6f64650000000000000000000000000000000000000081525060400191505060405180910390fd5b80600060146101000a81548160ff02191690831515021790555050565b600060149054906101000a900460ff161515611115576040517f08c379a00000000000000000000000000000000000000000000000000000000081526004018080602001828103825260258152602001807f436f6e74726163742069732063757272656e746c79206e6f74206f706572617481526020017f696f6e616c00000000000000000000000000000000000000000000000000000081525060400191505060405180910390fd5b600260009054906101000a900473ffffffffffffffffffffffffffffffffffffffff1673ffffffffffffffffffffffffffffffffffffffff16630c11dedd336040518263ffffffff167c0100000000000000000000000000000000000000000000000000000000028152600401808273ffffffffffffffffffffffffffffffffffffffff1673ffffffffffffffffffffffffffffffffffffffff168152602001915050600060405180830381600087803b1580156111d257600080fd5b505af11580156111e6573d6000803e3d6000fd5b50505050565b600060149054906101000a900460ff161515611296576040517f08c379a00000000000000000000000000000000000000000000000000000000081526004018080602001828103825260258152602001807f436f6e74726163742069732063757272656e746c79206e6f74206f706572617481526020017f696f6e616c00000000000000000000000000000000000000000000000000000081525060400191505060405180910390fd5b6000341180156112ae5750670de0b6b3a76400003411155b1515611348576040517f08c379a00000000000000000000000000000000000000000000000000000000081526004018080602001828103825260288152602001807f496e737572616e63652076616c7565206973206e6f742077697468696e20746881526020017f65206c696d69747300000000000000000000000000000000000000000000000081525060400191505060405180910390fd5b600260009054906101000a900473ffffffffffffffffffffffffffffffffffffffff1673ffffffffffffffffffffffffffffffffffffffff1663e6143d95858585856040518563ffffffff167c0100000000000000000000000000000000000000000000000000000000028152600401808573ffffffffffffffffffffffffffffffffffffffff1673ffffffffffffffffffffffffffffffffffffffff168152602001806020018381526020018281038252858582818152602001925080828437820191505095505050505050602060405180830381600087803b15801561142f57600080fd5b505af1158015611443573d6000803e3d6000fd5b505050506040513d602081101561145957600080fd5b810190808051906020019092919050505015156114de576040517f08c379a00000000000000000000000000000000000000000000000000000000081526004018080602001828103825260188152602001807f466c69676874206973206e6f742072656769737465726564000000000000000081525060200191505060405180910390fd5b600260009054906101000a900473ffffffffffffffffffffffffffffffffffffffff1673ffffffffffffffffffffffffffffffffffffffff1663015ea1a0858585856040518563ffffffff167c0100000000000000000000000000000000000000000000000000000000028152600401808573ffffffffffffffffffffffffffffffffffffffff1673ffffffffffffffffffffffffffffffffffffffff168152602001806020018381526020018281038252858582818152602001925080828437820191505095505050505050602060405180830381600087803b1580156115c557600080fd5b505af11580156115d9573d6000803e3d6000fd5b505050506040513d60208110156115ef57600080fd5b8101908080519060200190929190505050151515611675576040517f08c379a00000000000000000000000000000000000000000000000000000000081526004018080602001828103825260158152602001807f466c6967687420616c7265616479206c616e646564000000000000000000000081525060200191505060405180910390fd5b600260009054906101000a900473ffffffffffffffffffffffffffffffffffffffff1673ffffffffffffffffffffffffffffffffffffffff1663c19b4fae33868686866040518663ffffffff167c0100000000000000000000000000000000000000000000000000000000028152600401808673ffffffffffffffffffffffffffffffffffffffff1673ffffffffffffffffffffffffffffffffffffffff1681526020018573ffffffffffffffffffffffffffffffffffffffff1673ffffffffffffffffffffffffffffffffffffffff16815260200180602001838152602001828103825285858281815260200192508082843782019150509650505050505050602060405180830381600087803b15801561179057600080fd5b505af11580156117a4573d6000803e3d6000fd5b505050506040513d60208110156117ba57600080fd5b8101908080519060200190929190505050151515611866576040517f08c379a00000000000000000000000000000000000000000000000000000000081526004018080602001828103825260328152602001807f50617373656e67657220616c726561647920626f7567687420696e737572616e81526020017f636520666f72207468697320666c69676874000000000000000000000000000081525060400191505060405180910390fd5b600260009054906101000a900473ffffffffffffffffffffffffffffffffffffffff1673ffffffffffffffffffffffffffffffffffffffff166108fc349081150290604051600060405180830381858888f193505050501580156118ce573d6000803e3d6000fd5b50600260009054906101000a900473ffffffffffffffffffffffffffffffffffffffff1673ffffffffffffffffffffffffffffffffffffffff1663a22a1af585858585333460966040518863ffffffff167c0100000000000000000000000000000000000000000000000000000000028152600401808873ffffffffffffffffffffffffffffffffffffffff1673ffffffffffffffffffffffffffffffffffffffff168152602001806020018681526020018573ffffffffffffffffffffffffffffffffffffffff1673ffffffffffffffffffffffffffffffffffffffff1681526020018481526020018381526020018281038252888882818152602001925080828437820191505098505050505050505050600060405180830381600087803b1580156119fb57600080fd5b505af1158015611a0f573d6000803e3d6000fd5b505050507fc1647762ee49a904197616f0bd3213b3b925a37d94f32d699214e1b7608582108484848433346096604051808873ffffffffffffffffffffffffffffffffffffffff1673ffffffffffffffffffffffffffffffffffffffff168152602001806020018681526020018573ffffffffffffffffffffffffffffffffffffffff1673ffffffffffffffffffffffffffffffffffffffff168152602001848152602001838152602001828103825288888281815260200192508082843782019150509850505050505050505060405180910390a150505050565b611af36135c2565b600060149054906101000a900460ff161515611b9d576040517f08c379a00000000000000000000000000000000000000000000000000000000081526004018080602001828103825260258152602001807f436f6e74726163742069732063757272656e746c79206e6f74206f706572617481526020017f696f6e616c00000000000000000000000000000000000000000000000000000081525060400191505060405180910390fd5b670de0b6b3a76400003410151515611c1d576040517f08c379a000000000000000000000000000000000000000000000000000000000815260040180806020018281038252601c8152602001807f526567697374726174696f6e206665652069732072657175697265640000000081525060200191505060405180910390fd5b611c2633613028565b9050604080519081016040528060011515815260200182815250600360003373ffffffffffffffffffffffffffffffffffffffff1673ffffffffffffffffffffffffffffffffffffffff16815260200190815260200160002060008201518160000160006101000a81548160ff021916908315150217905550602082015181600101906003611cb69291906135e5565b5090505050565b600060149054906101000a900460ff161515611d67576040517f08c379a00000000000000000000000000000000000000000000000000000000081526004018080602001828103825260258152602001807f436f6e74726163742069732063757272656e746c79206e6f74206f706572617481526020017f696f6e616c00000000000000000000000000000000000000000000000000000081525060400191505060405180910390fd5b33600260009054906101000a900473ffffffffffffffffffffffffffffffffffffffff1673ffffffffffffffffffffffffffffffffffffffff1663f3ba4e1b826040518263ffffffff167c0100000000000000000000000000000000000000000000000000000000028152600401808273ffffffffffffffffffffffffffffffffffffffff1673ffffffffffffffffffffffffffffffffffffffff168152602001915050602060405180830381600087803b158015611e2557600080fd5b505af1158015611e39573d6000803e3d6000fd5b505050506040513d6020811015611e4f57600080fd5b81019080805190602001909291905050501515611efa576040517f08c379a00000000000000000000000000000000000000000000000000000000081526004018080602001828103825260328152602001807f4f6e6c79206578697374696e6720616e642066756e646564206169726c696e6581526020017f732061726520616c6c6f7765642841707029000000000000000000000000000081525060400191505060405180910390fd5b600260009054906101000a900473ffffffffffffffffffffffffffffffffffffffff1673ffffffffffffffffffffffffffffffffffffffff16633cc0be9c338686866040518563ffffffff167c0100000000000000000000000000000000000000000000000000000000028152600401808573ffffffffffffffffffffffffffffffffffffffff1673ffffffffffffffffffffffffffffffffffffffff168152602001806020018381526020018281038252858582818152602001925080828437820191505095505050505050600060405180830381600087803b158015611fe157600080fd5b505af1158015611ff5573d6000803e3d6000fd5b505050507f34151dfe5f5d2e1a6ed2a8b951d1f9935b00b4711e31a6c7972eaee3b81c1f0233858585604051808573ffffffffffffffffffffffffffffffffffffffff1673ffffffffffffffffffffffffffffffffffffffff16815260200180602001838152602001828103825285858281815260200192508082843782019150509550505050505060405180910390a150505050565b6120946135c2565b600060149054906101000a900460ff16151561213e576040517f08c379a00000000000000000000000000000000000000000000000000000000081526004018080602001828103825260258152602001807f436f6e74726163742069732063757272656e746c79206e6f74206f706572617481526020017f696f6e616c00000000000000000000000000000000000000000000000000000081525060400191505060405180910390fd5b600360003373ffffffffffffffffffffffffffffffffffffffff1673ffffffffffffffffffffffffffffffffffffffff16815260200190815260200160002060000160009054906101000a900460ff161515612202576040517f08c379a000000000000000000000000000000000000000000000000000000000815260040180806020018281038252601b8152602001807f4e6f74207265676973746572656420617320616e206f7261636c65000000000081525060200191505060405180910390fd5b600360003373ffffffffffffffffffffffffffffffffffffffff1673ffffffffffffffffffffffffffffffffffffffff1681526020019081526020016000206001016003806020026040519081016040528092919082600380156122a1576020028201916000905b82829054906101000a900460ff1660ff168152602001906001019060208260000104928301926001038202915080841161226a5790505b5050505050905090565b670de0b6b3a764000081565b600060149054906101000a900460ff161515612361576040517f08c379a00000000000000000000000000000000000000000000000000000000081526004018080602001828103825260258152602001807f436f6e74726163742069732063757272656e746c79206e6f74206f706572617481526020017f696f6e616c00000000000000000000000000000000000000000000000000000081525060400191505060405180910390fd5b678ac7230489e800003410151515612407576040517f08c379a00000000000000000000000000000000000000000000000000000000081526004018080602001828103825260238152602001807f4e6f7420636f72726563742066756e64696e672076616c7565207375626d697481526020017f746564000000000000000000000000000000000000000000000000000000000081525060400191505060405180910390fd5b600260009054906101000a900473ffffffffffffffffffffffffffffffffffffffff1673ffffffffffffffffffffffffffffffffffffffff166108fc349081150290604051600060405180830381858888f1935050505015801561246f573d6000803e3d6000fd5b50600260009054906101000a900473ffffffffffffffffffffffffffffffffffffffff1673ffffffffffffffffffffffffffffffffffffffff16636fbb8798336040518263ffffffff167c0100000000000000000000000000000000000000000000000000000000028152600401808273ffffffffffffffffffffffffffffffffffffffff1673ffffffffffffffffffffffffffffffffffffffff168152602001915050600060405180830381600087803b15801561252d57600080fd5b505af1158015612541573d6000803e3d6000fd5b505050507fe3e3c2f23f7445131259937f93b9ed0c075fe06c9d702be2d7ac549d0ec5fc323334604051808373ffffffffffffffffffffffffffffffffffffffff1673ffffffffffffffffffffffffffffffffffffffff1681526020018281526020019250505060405180910390a1565b60008060149054906101000a900460ff16151561265d576040517f08c379a00000000000000000000000000000000000000000000000000000000081526004018080602001828103825260258152602001807f436f6e74726163742069732063757272656e746c79206e6f74206f706572617481526020017f696f6e616c00000000000000000000000000000000000000000000000000000081525060400191505060405180910390fd5b8660ff16600360003373ffffffffffffffffffffffffffffffffffffffff1673ffffffffffffffffffffffffffffffffffffffff16815260200190815260200160002060010160006003811015156126b157fe5b602091828204019190069054906101000a900460ff1660ff16148061274057508660ff16600360003373ffffffffffffffffffffffffffffffffffffffff1673ffffffffffffffffffffffffffffffffffffffff168152602001908152602001600020600101600160038110151561272557fe5b602091828204019190069054906101000a900460ff1660ff16145b806127b557508660ff16600360003373ffffffffffffffffffffffffffffffffffffffff1673ffffffffffffffffffffffffffffffffffffffff168152602001908152602001600020600101600260038110151561279a57fe5b602091828204019190069054906101000a900460ff1660ff16145b151561284f576040517f08c379a00000000000000000000000000000000000000000000000000000000081526004018080602001828103825260238152602001807f496e64657820646f6573206e6f74206d61746368206f7261636c65207265717581526020017f657374000000000000000000000000000000000000000000000000000000000081525060400191505060405180910390fd5b8686868686604051602001808660ff1660ff167f01000000000000000000000000000000000000000000000000000000000000000281526001018573ffffffffffffffffffffffffffffffffffffffff1673ffffffffffffffffffffffffffffffffffffffff166c010000000000000000000000000281526014018484808284378201915050828152602001955050505050506040516020818303038152906040526040518082805190602001908083835b6020831015156129265780518252602082019150602081019050602083039250612901565b6001836020036101000a0380198251168184511680821785525050505050509050019150506040518091039020905060046000826000191660001916815260200190815260200160002060000160149054906101000a900460ff161515612a1b576040517f08c379a000000000000000000000000000000000000000000000000000000000815260040180806020018281038252602f8152602001807f466c69676874206f722074696d657374616d7020646f206e6f74206d6174636881526020017f206f7261636c652072657175657374000000000000000000000000000000000081525060400191505060405180910390fd5b60046000826000191660001916815260200190815260200160002060010160008360ff1660ff1681526020019081526020016000203390806001815401808255809150509060018203906000526020600020016000909192909190916101000a81548173ffffffffffffffffffffffffffffffffffffffff021916908373ffffffffffffffffffffffffffffffffffffffff160217905550507f43c853095c2752648493c88b4baac4d580d2594ffb00c6f1d4242d844514f7838686868686604051808673ffffffffffffffffffffffffffffffffffffffff1673ffffffffffffffffffffffffffffffffffffffff168152602001806020018481526020018360ff1660ff16815260200182810382528686828181526020019250808284378201915050965050505050505060405180910390a1600360046000836000191660001916815260200190815260200160002060010160008460ff1660ff16815260200190815260200160002080549050101515612c6b577fe23f5229de535c091e3b7bec2665f5d698192d3b31393066e8987b7a05076b6c8686868686604051808673ffffffffffffffffffffffffffffffffffffffff1673ffffffffffffffffffffffffffffffffffffffff168152602001806020018481526020018360ff1660ff16815260200182810382528686828181526020019250808284378201915050965050505050505060405180910390a1612c6a8686868080601f01602080910402602001604051908101604052809392919081815260200183838082843782019150505050505085856131ce565b5b50505050505050565b6060600260009054906101000a900473ffffffffffffffffffffffffffffffffffffffff1673ffffffffffffffffffffffffffffffffffffffff1663c23bcf096040518163ffffffff167c0100000000000000000000000000000000000000000000000000000000028152600401600060405180830381600087803b158015612cfc57600080fd5b505af1158015612d10573d6000803e3d6000fd5b505050506040513d6000823e3d601f19601f820116820180604052506020811015612d3a57600080fd5b810190808051640100000000811115612d5257600080fd5b82810190506020810184811115612d6857600080fd5b8151856020820283011164010000000082111715612d8557600080fd5b5050929190505050905090565b60008060149054906101000a900460ff16905090565b600080612db4336133d6565b91508186868686604051602001808660ff1660ff167f01000000000000000000000000000000000000000000000000000000000000000281526001018573ffffffffffffffffffffffffffffffffffffffff1673ffffffffffffffffffffffffffffffffffffffff166c010000000000000000000000000281526014018484808284378201915050828152602001955050505050506040516020818303038152906040526040518082805190602001908083835b602083101515612e8d5780518252602082019150602081019050602083039250612e68565b6001836020036101000a0380198251168184511680821785525050505050509050019150506040518091039020905060408051908101604052803373ffffffffffffffffffffffffffffffffffffffff1681526020016001151581525060046000836000191660001916815260200190815260200160002060008201518160000160006101000a81548173ffffffffffffffffffffffffffffffffffffffff021916908373ffffffffffffffffffffffffffffffffffffffff16021790555060208201518160000160146101000a81548160ff0219169083151502179055509050507f3ed01f2c3fc24c6b329d931e35b03e390d23497d22b3f90e15b600343e93df118287878787604051808660ff1660ff1681526020018573ffffffffffffffffffffffffffffffffffffffff1673ffffffffffffffffffffffffffffffffffffffff1681526020018060200183815260200182810382528585828181526020019250808284378201915050965050505050505060405180910390a1505050505050565b6000818381151561301f57fe5b04905092915050565b6130306135c2565b6130386135c2565b613041836133d6565b81600060038110151561305057fe5b602002019060ff16908160ff168152505080600060038110151561307057fe5b602002015181600160038110151561308457fe5b602002019060ff16908160ff16815250505b8060006003811015156130a557fe5b602002015160ff168160016003811015156130bc57fe5b602002015160ff1614156130f8576130d3836133d6565b8160016003811015156130e257fe5b602002019060ff16908160ff1681525050613096565b80600160038110151561310757fe5b602002015181600260038110151561311b57fe5b602002019060ff16908160ff16815250505b80600060038110151561313c57fe5b602002015160ff1681600260038110151561315357fe5b602002015160ff161480613192575080600160038110151561317157fe5b602002015160ff1681600260038110151561318857fe5b602002015160ff16145b156131c5576131a0836133d6565b8160026003811015156131af57fe5b602002019060ff16908160ff168152505061312d565b80915050919050565b600060149054906101000a900460ff161515613278576040517f08c379a00000000000000000000000000000000000000000000000000000000081526004018080602001828103825260258152602001807f436f6e74726163742069732063757272656e746c79206e6f74206f706572617481526020017f696f6e616c00000000000000000000000000000000000000000000000000000081525060400191505060405180910390fd5b600260009054906101000a900473ffffffffffffffffffffffffffffffffffffffff1673ffffffffffffffffffffffffffffffffffffffff1663e7bdde3b858585856040518563ffffffff167c0100000000000000000000000000000000000000000000000000000000028152600401808573ffffffffffffffffffffffffffffffffffffffff1673ffffffffffffffffffffffffffffffffffffffff168152602001806020018481526020018360ff1660ff168152602001828103825285818151815260200191508051906020019080838360005b8381101561336957808201518184015260208101905061334e565b50505050905090810190601f1680156133965780820380516001836020036101000a031916815260200191505b5095505050505050600060405180830381600087803b1580156133b857600080fd5b505af11580156133cc573d6000803e3d6000fd5b5050505050505050565b6000806000600a91508160ff166002601481819054906101000a900460ff168092919060010191906101000a81548160ff021916908360ff16021790555060ff16430340856040516020018083600019166000191681526020018273ffffffffffffffffffffffffffffffffffffffff1673ffffffffffffffffffffffffffffffffffffffff166c01000000000000000000000000028152601401925050506040516020818303038152906040526040518082805190602001908083835b6020831015156134b95780518252602082019150602081019050602083039250613494565b6001836020036101000a0380198251168184511680821785525050505050509050019150506040518091039020600190048115156134f357fe5b06905060fa600260149054906101000a900460ff1660ff16111561352e576000600260146101000a81548160ff021916908360ff1602179055505b8092505050919050565b8280548282559060005260206000209081019282156135b1579160200282015b828111156135b05782518260006101000a81548173ffffffffffffffffffffffffffffffffffffffff021916908373ffffffffffffffffffffffffffffffffffffffff16021790555091602001919060010190613558565b5b5090506135be919061367f565b5090565b606060405190810160405280600390602082028038833980820191505090505090565b826003601f0160209004810192821561366e5791602002820160005b8382111561363f57835183826101000a81548160ff021916908360ff1602179055509260200192600101602081600001049283019260010302613601565b801561366c5782816101000a81549060ff021916905560010160208160000104928301926001030261363f565b505b50905061367b91906136c2565b5090565b6136bf91905b808211156136bb57600081816101000a81549073ffffffffffffffffffffffffffffffffffffffff021916905550600101613685565b5090565b90565b6136ef91905b808211156136eb57600081816101000a81549060ff0219169055506001016136c8565b5090565b905600a165627a7a723058208a13362670eb8036d4dc8e4542a89b48f647c74fbe7d22bcba84977d8b7c230a0029",
  "source": "pragma solidity >=0.4.25;\n\n// It's important to avoid vulnerabilities due to numeric overflow bugs\n// OpenZeppelin's SafeMath library, when used correctly, protects agains such bugs\n// More info: https://www.nccgroup.trust/us/about-us/newsroom-and-events/blog/2018/november/smart-contract-insecurity-bad-arithmetic/\n\nimport \"../node_modules/openzeppelin-solidity/contracts/math/SafeMath.sol\";\n// import \"./FlightSuretyData.sol\";\n\n/************************************************** */\n/* FlightSurety Smart Contract                      */\n/************************************************** */\ncontract FlightSuretyApp {\n    using SafeMath for uint256; // Allow SafeMath functions to be called for all uint256 types (similar to \"prototype\" in Javascript)\n\n    /********************************************************************************************/\n    /*                                       DATA VARIABLES                                     */\n    /********************************************************************************************/\n\n    // Flight status codees\n    // uint8 private constant STATUS_CODE_UNKNOWN = 0;\n    // uint8 private constant STATUS_CODE_ON_TIME = 10;\n    // uint8 private constant STATUS_CODE_LATE_AIRLINE = 20;\n    // uint8 private constant STATUS_CODE_LATE_WEATHER = 30;\n    // uint8 private constant STATUS_CODE_LATE_TECHNICAL = 40;\n    // uint8 private constant STATUS_CODE_LATE_OTHER = 50;\n\n    // Registration of fifth and subsequent airlines requires multi-party consensus of 50% of registered airlines\n    uint constant REGISTER_AIRLINE_MULTI_CALL_THRESHOLD = 4;\n    uint constant REGISTER_AIRLINE_MULTI_CALL_CONSENSUS_DIVISOR = 2;\n\n    address private contractOwner;          // Account used to deploy contract\n\n    bool private operational = true;\n\n    // Multi-party consensus for airline registration\n    mapping(address => address[]) private registerAirlineMultiCalls;\n\n    // struct Flight {\n    //     bool isRegistered;\n    //     string name;\n    //     uint8 statusCode;\n    //     uint256 departure;\n    //     address airline;\n    // }\n\n    // struct Airline{\n    //     bool exists;\n    //     bool registered;\n    //     bool funded;\n    //     bytes32[] flightKeys;\n    //     Votes votes;\n    // }\n\n    // struct Votes{\n    //     uint votersCount;\n    //     mapping(address => bool) voters;\n    // }\n\n    // struct Insurance {\n    //     address buyer;\n    //     address airline;\n    //     string flightKey;\n    //     uint value;\n    //     bool isCredited;\n    // }\n\n  FlightSuretyData dataContract;\n\n  // Airline Ante: Airline can be registered, but does not participate in contract until it submits funding of 10 ether\n  uint constant AIRLINE_FUNDING_VALUE = 10 ether;\n\n  // Passenger Payment: Passengers may pay up to 1 ether for purchasing flight insurance\n  uint constant MAX_PASSENGER_INSURANCE_VALUE = 1 ether;\n\n  // Insurance multiplier in percentage\n  uint constant INSURANCE_MULTIPLIER = 150; // 150%\n\n    /********************************************************************************************/\n    /*                                       FUNCTION MODIFIERS                                 */\n    /********************************************************************************************/\n\n    // Modifiers help avoid duplication of code. They are typically used to validate something\n    // before a function is allowed to be executed.\n\n    /**\n    * @dev Modifier that requires the \"operational\" boolean variable to be \"true\"\n    *      This is used on all state changing functions to pause the contract in\n    *      the event there is an issue that needs to be fixed\n    */\n    modifier requireIsOperational()\n    {\n         // Modify to call data contract's status\n        require(operational, \"Contract is currently not operational\");\n        _;  // All modifiers require an \"_\" which indicates where the function body will be added\n    }\n\n    /**\n    * @dev Modifier that requires the \"ContractOwner\" account to be the function caller\n    */\n    modifier requireContractOwner()\n    {\n        require(msg.sender == contractOwner, \"Caller is not contract owner\");\n        _;\n    }\n\n    /**\n     * @dev Modifier that requires airline to be funded\n     */\n    modifier requireAirlineIsFunded(address airline) {\n        require(dataContract.isFundedAirline(airline), \"Only existing and funded airlines are allowed(App)\");\n        _;\n    }\n\n    /********************************************************************************************/\n    /*                                       CONSTRUCTOR                                        */\n    /********************************************************************************************/\n\n    /**\n    * @dev Contract constructor\n    *\n    */\n    constructor(address dataContractAddress) public\n    {\n        contractOwner = msg.sender;\n        dataContract = FlightSuretyData(dataContractAddress);\n    }\n\n    /********************************************************************************************/\n    /*                                       EVENT DEFINITIONS                                  */\n    /********************************************************************************************/\n\n    event AirlineRegistered(string name, address addr, bool result, uint256 votes);\n    event AirlineFunded(address airline, uint amount);\n    event FlightRegistered(address airline, string flightName, uint256 departureTime);\n    event InsuranceBought(address airline, string flight, uint256 timestamp, address passenger, uint256 amount, uint256 multiplier);\n\n    // Event fired each time an oracle submits a response\n    event FlightStatusInfo(address airline, string flight, uint256 timestamp, uint8 status);\n\n    event OracleReport(address airline, string flight, uint256 timestamp, uint8 status);\n\n    // Event fired when flight status request is submitted\n    // Oracles track this and if they have a matching index\n    // they fetch data and submit a response\n    event OracleRequest(uint8 index, address airline, string flight, uint256 timestamp);\n\n    event RegisteredCount(uint getRegisteredAirlinesCount);\n\n    /********************************************************************************************/\n    /*                                       UTILITY FUNCTIONS                                  */\n    /********************************************************************************************/\n\n    function isOperational() public view returns(bool)\n    {\n        return operational;  // Modify to call data contract's status\n    }\n\n    function setOperatingStatus(bool mode) external requireContractOwner {\n        require(mode != operational, \"New mode must be different from existing mode\");\n        operational = mode;\n    }\n\n    function getRegisteredAirlines() external view returns(address[] memory){\n      return dataContract.getRegisteredAirlines();\n    }\n    /********************************************************************************************/\n    /*                                     SMART CONTRACT FUNCTIONS                             */\n    /********************************************************************************************/\n\n\n   /**\n    * @dev Add an airline to the registration queue\n    *\n    */\n    function registerAirline\n    (string memory name, address addr) public\n     requireIsOperational requireAirlineIsFunded(msg.sender)\n                            returns(bool success, uint256 votes)\n    {\n        bool result = false;\n        uint registeredAirlinesCount = dataContract.getRegisteredAirlinesCount();\n\n        if(registeredAirlinesCount < REGISTER_AIRLINE_MULTI_CALL_THRESHOLD) {\n          result = dataContract.registerAirline(name, addr);\n        }\n        else {\n            bool isDuplicate = false;\n\n            for(uint i = 0; i < registerAirlineMultiCalls[addr].length; i++) {\n                if (registerAirlineMultiCalls[addr][i] == msg.sender) {\n                isDuplicate = true;\n                break;\n                }\n            }\n\n            require(!isDuplicate, \"Caller has already registered.\");\n\n            registerAirlineMultiCalls[addr].push(msg.sender);\n\n            if (registerAirlineMultiCalls[addr].length >= registeredAirlinesCount.div(REGISTER_AIRLINE_MULTI_CALL_CONSENSUS_DIVISOR)) {\n                result = dataContract.registerAirline(name, addr);\n                registerAirlineMultiCalls[addr] = new address[](0);\n            }\n        }\n\n    emit AirlineRegistered(name, addr, result, registerAirlineMultiCalls[addr].length);\n    return (result, registerAirlineMultiCalls[addr].length);\n    }\n\n    /**\n    * @dev Submit funding for airline\n    */\n    function fundAirline() external payable requireIsOperational {\n        require(msg.value >= AIRLINE_FUNDING_VALUE, \"Not correct funding value submitted\");\n\n        // Cast address to payable address\n        address(uint160(address(dataContract))).transfer(msg.value);\n\n        dataContract.fundAirline(msg.sender);\n\n        emit AirlineFunded(msg.sender, msg.value);\n    }\n\n   /**\n    * @dev Register a future flight for insuring.\n    *\n    */\n    function registerFlight(string flightName, uint256 departureTime) external requireIsOperational requireAirlineIsFunded(msg.sender) {\n        dataContract.registerFlight(msg.sender, flightName, departureTime);\n        emit FlightRegistered(msg.sender, flightName, departureTime);\n    }\n\n   /**\n    * @dev Called after oracle has updated flight status\n    *\n    */\n    function processFlightStatus(\n    address airline,\n    string memory flight,\n    uint256 timestamp,\n    uint8 statusCode)\n    internal\n    requireIsOperational\n    {\n        dataContract.processFlightStatus(airline, flight, timestamp, statusCode);\n    }\n\n\n    // Generate a request for oracles to fetch flight information\n    function fetchFlightStatus\n                        (\n                            address airline,\n                            string flight,\n                            uint256 timestamp\n                        )\n                        external\n    {\n        uint8 index = getRandomIndex(msg.sender);\n\n        // Generate a unique key for storing the request\n        bytes32 key = keccak256(abi.encodePacked(index, airline, flight, timestamp));\n        oracleResponses[key] = ResponseInfo({\n                                                requester: msg.sender,\n                                                isOpen: true\n                                            });\n\n        emit OracleRequest(index, airline, flight, timestamp);\n    }\n\n    /**\n    * @dev Buy insurance for a flight\n    */\n    function buyInsurance(address airline, string flight, uint256 timestamp) external payable requireIsOperational {\n        require(msg.value > 0 && msg.value <= MAX_PASSENGER_INSURANCE_VALUE, \"Insurance value is not within the limits\");\n        require(dataContract.isFlight(airline, flight, timestamp), \"Flight is not registered\");\n        require(!dataContract.isLandedFlight(airline, flight, timestamp), \"Flight already landed\");\n        require(!dataContract.isInsured(msg.sender, airline, flight, timestamp), \"Passenger already bought insurance for this flight\");\n\n        // Cast address to payable address\n        address(uint160(address(dataContract))).transfer(msg.value);\n\n        dataContract.buy(airline, flight, timestamp, msg.sender, msg.value, INSURANCE_MULTIPLIER);\n\n        emit InsuranceBought(airline, flight, timestamp, msg.sender, msg.value, INSURANCE_MULTIPLIER);\n    }\n\n    function pay() public requireIsOperational {\n        dataContract.pay(msg.sender);\n    }\n\n// region ORACLE MANAGEMENT\n\n    // Incremented to add pseudo-randomness at various points\n    uint8 private nonce = 0;\n\n    // Fee to be paid when registering oracle\n    uint256 public constant REGISTRATION_FEE = 1 ether;\n\n    // Number of oracles that must respond for valid status\n    uint256 private constant MIN_RESPONSES = 3;\n\n\n    struct Oracle {\n        bool isRegistered;\n        uint8[3] indexes;\n    }\n\n    // Track all registered oracles\n    mapping(address => Oracle) private oracles;\n\n    // Model for responses from oracles\n    struct ResponseInfo {\n        address requester;                              // Account that requested status\n        bool isOpen;                                    // If open, oracle responses are accepted\n        mapping(uint8 => address[]) responses;          // Mapping key is the status code reported\n                                                        // This lets us group responses and identify\n                                                        // the response that majority of the oracles\n    }\n\n    // Track all oracle responses\n    // Key = hash(index, flight, timestamp)\n    mapping(bytes32 => ResponseInfo) private oracleResponses;\n\n  // Register an oracle with the contract\n  function registerOracle() external payable requireIsOperational {\n    // Require registration fee\n    require(msg.value >= REGISTRATION_FEE, \"Registration fee is required\");\n\n    uint8[3] memory indexes = generateIndexes(msg.sender);\n\n    oracles[msg.sender] = Oracle({isRegistered: true, indexes: indexes});\n  }\n\n  function getMyIndexes() external view requireIsOperational returns(uint8[3] memory) {\n    require(oracles[msg.sender].isRegistered, \"Not registered as an oracle\");\n    return oracles[msg.sender].indexes;\n  }\n\n  // Called by oracle when a response is available to an outstanding request\n  // For the response to be accepted, there must be a pending request that is open\n  // and matches one of the three Indexes randomly assigned to the oracle at the\n  // time of registration (i.e. uninvited oracles are not welcome)\n  function submitOracleResponse(uint8 index, address airline, string flight, uint256 timestamp, uint8 statusCode) external requireIsOperational {\n    require((oracles[msg.sender].indexes[0] == index) || (oracles[msg.sender].indexes[1] == index) || (oracles[msg.sender].indexes[2] == index), \"Index does not match oracle request\");\n\n    bytes32 key = keccak256(abi.encodePacked(index, airline, flight, timestamp)); \n    require(oracleResponses[key].isOpen, \"Flight or timestamp do not match oracle request\");\n\n    oracleResponses[key].responses[statusCode].push(msg.sender);\n\n    // Information isn't considered verified until at least MIN_RESPONSES\n    // oracles respond with the *** same *** information\n    emit OracleReport(airline, flight, timestamp, statusCode);\n    if (oracleResponses[key].responses[statusCode].length >= MIN_RESPONSES) {\n      emit FlightStatusInfo(airline, flight, timestamp, statusCode);\n\n      // Handle flight status as appropriate\n      processFlightStatus(airline, flight, timestamp, statusCode);\n    }\n  }\n\n  function getFlightKey(address airline, string memory flight, uint256 timestamp) pure internal returns(bytes32) {\n    return keccak256(abi.encodePacked(airline, flight, timestamp));\n  }\n\n  // Returns array of three non-duplicating integers from 0-9\n  function generateIndexes(address account) internal returns(uint8[3] memory) {\n    uint8[3] memory indexes;\n    indexes[0] = getRandomIndex(account);\n    \n    indexes[1] = indexes[0];\n    while(indexes[1] == indexes[0]) {\n      indexes[1] = getRandomIndex(account);\n    }\n\n    indexes[2] = indexes[1];\n    while((indexes[2] == indexes[0]) || (indexes[2] == indexes[1])) {\n      indexes[2] = getRandomIndex(account);\n    }\n\n    return indexes;\n  }\n\n  // Returns array of three non-duplicating integers from 0-9\n  function getRandomIndex(address account) internal returns (uint8) {\n    uint8 maxValue = 10;\n\n    // Pseudo random number...the incrementing nonce adds variation\n    uint8 random = uint8(uint256(keccak256(abi.encodePacked(blockhash(block.number - nonce++), account))) % maxValue);\n\n    if (nonce > 250) {\n      nonce = 0;  // Can only fetch blockhashes for last 256 blocks so we adapt\n    }\n\n    return random;\n  }\n\n// endregion\n\n}\n\n// FlightSurety data contract interface stub\ncontract FlightSuretyData {\n  // Utility functions\n  function isOperational() public view returns(bool);\n  function setOperatingStatus(bool mode) external;\n\n  // Airlines\n  function registerAirline(string name, address addr) external returns(bool);\n  function isAirline(address airline) external view returns(bool);\n  function isFundedAirline(address airline) external view returns(bool);\n  function getRegisteredAirlines() external view returns(address[] memory);\n  function fundAirline(address addr) external payable;\n  function getRegisteredAirlinesCount() external view returns(uint);\n\n  // Flights\n  function registerFlight(address airline, string flight, uint256 timestamp) external;\n  function isFlight(address airline, string flight, uint256 timestamp) external view returns(bool);\n  function isLandedFlight(address airline, string flight, uint256 timestamp) external view returns(bool);\n  function processFlightStatus(address airline, string flight, uint256 timestamp, uint8 statusCode) external;\n  function getFlightStatusCode(address airline, string flight, uint256 timestamp) external view returns(uint8);\n\n  // Passengers\n  function buy(address airline, string flight, uint256 timestamp,\n               address passenger, uint256 amount, uint256 multiplier) external payable;\n  function isInsured(address passenger, address airline, string flight, uint256 timestamp) external view returns (bool);\n  function pay(address passenger) external;\n}",
  "sourcePath": "/Users/yifanxiao/Blockchain_nanodegree/Udacity_Blockchain_Dev/FlightSurety/contracts/FlightSuretyApp.sol",
  "compiler": {
    "name": "solc",
    "version": "0.4.26+commit.4563c3fc.Emscripten.clang"
  },
  "schemaVersion": "3.0.1",
  "updatedAt": "2019-06-24T06:36:27.931Z",
  "devdoc": {
    "methods": {
      "buyInsurance(address,string,uint256)": {
        "details": "Buy insurance for a flight"
      },
      "fundAirline()": {
        "details": "Submit funding for airline"
      },
      "registerAirline(string,address)": {
        "details": "Add an airline to the registration queue    "
      },
      "registerFlight(string,uint256)": {
        "details": "Register a future flight for insuring.    "
      }
    }
  },
  "userdoc": {
    "methods": {
      "isOperational()": {
        "notice": "*****************************************************************************************"
      }
    }
  }
}